:020000000C945E
:1000020038000C9400000C9400000C9400000C9436
:1000120000000C9400000C9400000C9400000C945E
:1000220000000C9400000C9400000C9400000C944E
:1000320000000C9400000C9400000C9400000C943E
:1000420000000C9400000C9400000C9400000C942E
:1000520000000C9400000C9400000C9400000C941E
:1000620000000C9400000C9400000C940000F89422
:10007200EE27ECBBF1E0FBBFEBBFE5BFE6BFF8E16B
:10008200F1BDE1BD8DE0A2E0BB27ED938A95E9F7D2
:1000920080E094E0A0E0B1E0ED930197E9F7EFEFA3
:1000A200EDBFE4E0EEBFC0E0D2E00C945800E0E81F
:1000B200E0936100E0E0E0936100EBBBEABBE8BBE8
:1000C200E1E0E7BBE0E0E5BBE4BBE2BBE1BBE7B9F3
:1000D200E6B9E3BFE2BFE1BFEFBDEEBDEDBDECBDF2
:1000E200E5BDE4BDEBBDEABDE9BDE8BDE6BDE7BDEA
:1000F200E3BDE2BDE0938B00E0938A00E0938900C8
:10010200E0938800E0938100E0938000E093870011
:10011200E0938600E0938500E0938400E5BFE6BFAC
:10012200E9BFE0937D00EAB9E1B9E0E8E8B9E0E0CF
:10013200EDB9C09AA0E9B1E00E94A700C098A0E979
:10014200B1E00E94A700F5CF0000FECF109639F073
:100152008AEF90E00197F1F7A8951197C9F70895F2
:00000001FF
