:020000000C945E
:100002004B000C9400000C9400000C9400000C9423
:1000120000000C9400000C9400000C9400000C945E
:1000220000000C9400000C9400000C9400000C944E
:1000320000000C9400000C9400000C9400000C943E
:1000420000000C9400000C9400000C9400000C942E
:1000520000000C9400000C9400000C9400000C941E
:1000620000000C9400000C9400000C9400000C940E
:1000720000000C9400000C9400000C9400000C94FE
:1000820000000C9400000C94000080C002000011DB
:100092008C000000F894EE27EFBBF1E0F5BFE5BF5E
:1000A200F8E1A895A4B7A77FA4BFF0936000E093FE
:1000B20060008DE0A2E0BB27ED938A95E9F780E02E
:1000C20090E4A0E0B1E0ED930197E9F7EEE8F0E00B
:1000D20085919591009761F0A591B5910590159044
:1000E200BF01F00105900D920197E1F7FB01F0CFFE
:1000F2008BBFE0E0EEBBEFEFEDBFE0E4EEBFC0E0B0
:10010200D1E10C948400E0E0E2B9E1B9E5B9EFEFA6
:10011200E4B9E0E0E8B9E7B9EBB9EAB9E4BDE5BDB5
:10012200E6BDE7BDE8BDE0938000E0938100E09387
:100132008500E0938400E0938700E0938600E093DB
:100142008900E0938800E0938B00E0938A00E093BB
:10015200B600E093B000E093B100E093B200E09308
:10016200B300E093B400E0939000E0939100E09339
:100172009500E0939400E0939700E0939600E0935B
:100182009900E0939800E0939B00E0939A00E0933B
:100192006900EDBBE0936800E0936E00E0936F00AE
:1001A200E0937000E0937100E0E8E0BFE0E0E093EC
:1001B2007B002B9A0E940F012B980E940F01F9CF0E
:1001C200FFCFFFE0FA95F1F70895A4B1AF70A4B99B
:1001D200299A2898F6DF2A9AF4DFA3B12A98F1DF48
:1001E2002A9AEFDF2A98A7FDF5CF0895A07FAB2BBF
:1001F200A5B92A9A0E94E2002A980E94E200089574
:100202002998A4B1A76FA4B9B5B1BF70A881EEDFD8
:10021200A881A295EBDF299A21960895EAEFF0E0F2
:10022200FA93EA930C941501E991F991309639F019
:100232008AEF90E00197F1F7A8953197C9F70895F1
:00000001FF
