:1000000064C084C17DC07CC07BC07AC079C078C028
:1000100077C076C075C074C073C072C071C070C044
:100020006FC049C360C374C325C424C423C422C49D
:1000300021C420C41FC481C395C3A9C31BC41AC44F
:1000400019C418C417C416C415C4B6C3CAC3F7C3A9
:1000500011C410C40FC40EC40DC40CC40BC4D6C349
:10006000EAC3EDC30403090412032D004C004F0042
:100070004C004E0049004B002D0016034100540077
:100080006D00650067006100380035003100350003
:1000900012011001FF000008C016DC05000101027A
:1000A000000109021200010100801409040000008F
:1000B000000000000600FF0901A101150026FF0055
:1000C000750895010900B20201C011241FBECFE5D9
:1000D000D2E0DEBFCDBF11E0A0E6B0E0E2E4F1E1A6
:1000E00002C005900D92A431B107D9F711E0A4E147
:1000F000B1E001C01D92A034B107E1F7F4D31FC8ED
:100100007FCF85B7836085BF8BB780648BBF089531
:100110001F93CF93DF9390912601935097FD82C058
:1001200020912301809122018D3209F079C098300D
:1001300009F076C0CCE0D0E0C21BD109C65DDE4F2D
:1001400083EC809316018AE580936000109214017D
:100150008881807621F0CE018BD4282F58C09A81D7
:1001600010921F018981882321F41092200122E03E
:1001700048C0853019F49093270142C0863089F534
:100180008B81813019F480E990E016C0823019F437
:1001900082EA90E011C08330F9F48A81882341F427
:1001A00084E690E0909325018093240124E015C01B
:1001B000813041F488E690E09093250180932401FA
:1001C00022E10BC0823041F48AE790E09093250150
:1001D0008093240126E101C020E080E48093140193
:1001E00016C0883021F421E089E291E00CC089300A
:1001F00019F49093290104C08A3011F421E001C060
:1002000020E08FE191E090932501809324018F817C
:10021000882321F48E81821708F4282F209361000F
:10022000109226018091600084FF49C08091610096
:100230008F3F09F444C0182F893008F018E0811B63
:10024000809361008091160198E8892780931601B8
:10025000112341F120912401309125018091140155
:1002600086FF0DC0A7E1B1E080E090E0F901E80F62
:10027000F91FE491ED9301961817C1F708C0912F6B
:10028000D901E7E1F1E08D9181939150E1F71150AF
:10029000812F90E01F5F0196820F931F909325019D
:1002A0008093240187E191E0612F2CD0612F6C5F56
:1002B0006C3019F08FEF80936100609360009AE0DA
:1002C00086B3837031F49150D9F7109227011092C0
:1002D0002101DF91CF911F910895A82FB92F80E0C0
:1002E00090E041E050EA60956F5F58F42D9138EF4F
:1002F00082279795879510F0842795273F5FC8F34D
:10030000F3CF0895EADF8D939D930895CF93CFB7F0
:10031000CF93DF93B09BFECFB09B0BC0B09B09C0C7
:10032000B09B07C0B09B05C0B09B03C0B09B01C091
:1003300089C06F93C0912301DD27C65DDE4F2F93E7
:1003400065E5B09B03C02F916F91E6CF0F931F938C
:100350004F9320E040E15F9306B3037000FB27F961
:100360003F9350E03BE039C0137040642F77012F7A
:1003700053501EC0406816B313702F7753501FC0E0
:10038000406406B32F770370D1F15350000023C0AF
:10039000406216B32F77137091F15350000025C0BF
:1003A00003701027515012F45D5F00001150279523
:1003B0002C3F16B3C8F613700127015027952C3F28
:1003C000C8F64227499306B3037010274F731150A4
:1003D00027952C3FA8F64695469516B3137079F0ED
:1003E0000127015027952C3F98F66B5A60F3315046
:1003F00006B3B0F600C010E41ABF002717C03B5088
:100400003195C31BD04010E41ABF0881033CF9F0BA
:100410000B34E9F0209121011981110F1213EDCF56
:10042000093651F10D3211F0013E39F700932801E0
:100430003F915F914F911F910F912F916F91CAB78B
:10044000C6FD68CFDF91CF91CFBFCF9118950091B6
:100450002801002369F310912601112339F5343066
:100460003AF13093260100932201109123013BE0E1
:10047000311B309323011CC0009126010130B4F4DC
:100480000AE53091600034FD14C000936000C6E1BD
:10049000D1E013C0052710E000C0000008BB1AC05F
:1004A000052710E0221F1DC010E021C04AE502C050
:1004B00032ED432FC4E1D0E032E017B31360C09AAD
:1004C00008B317BB53E020E865E320FF052708BB0E
:1004D000279517951C3FF0F66695B8F7B1F720FF02
:1004E000052708BB279517951C3FD0F6279517952C
:1004F00017FF052700001C3F08BBB0F629913A956D
:1005000019F70C7F10912701110FC651D04008BB7D
:1005100011F01093210110E41ABF016017B31C7F82
:10052000402F4C7F54E05A95F1F708BB17BB48BBEE
:100530007FCF982F8823E9F0807F8BBBD89ADA9AF7
:1005400020EA3FE0F9013197F1F7DA98D898F901FC
:100550003197F1F7892F90E044E0880F991F4A9571
:10056000E1F78BBBD89ADA9AC9010197F1F7DA98CB
:10057000D8980895282F207F2BBBDA9A20EA3FE0F5
:10058000F9013197F1F7DA98F9013197F1F790E035
:1005900054E0880F991F5A95E1F78BBBDA9AC9018D
:1005A0000197F1F7DA98C9010197F1F708951BBA9D
:1005B0001BBA8AB3806F8ABB8AB387608ABB80E329
:1005C0008BBBDA9A20EA3FE0F9013197F1F7DA982C
:1005D000F9013197F1F78BBBDA9AC9010197F1F76D
:1005E000DA98C9010197F1F780E28BBBDA9AC90169
:1005F0000197F1F7DA98C9010197F1F788E2BADFBC
:100600008EE0B8DF089581E0B5DF089582E0B2DFC3
:100610000895EF92FF920F931F93CF93DF938C0176
:100620007B01009761F0C0E0D0E006C0F801EC0F5C
:10063000FD1F80817EDF2196CE15DF05BCF3DF91A3
:10064000CF911F910F91FF90EF9008958CE092DF72
:100650000895613009F4805C80688CDF089584EC33
:1006600085BB0895CF92DF92EF92FF920F931F9375
:10067000DF93CF93CDB7DEB761970FB6F894DEBFA7
:100680000FBECDBF7B018C0180E061E0E2DF6E0137
:100690000894C11CD11CC60160E270E041E150E049
:1006A00065D2F7013197E132F10508F0E3C0EF5E62
:1006B000FF4FC60109942CB33FB34DB75EB7485006
:1006C00050400FB6F8945EBF0FBE4DBFEDB7FEB7FA
:1006D0003196ADB7BEB71196CC92119712969C93F6
:1006E00082E690E0C0C029B336B3ADB7BEB7189765
:1006F0000FB6F894BEBF0FBEADBFEDB7FEB73196D3
:100700001196CC92119712969C9381E790E0ABC022
:1007100023B330B3ADB7BEB718970FB6F894BEBFCA
:100720000FBEADBFEDB7FEB731961196CC921197C3
:1007300012969C938DE790E096C020B530B5ADB78A
:10074000BEB718970FB6F894BEBF0FBEADBFEDB7DA
:10075000FEB731961196CC92119712969C9389E828
:1007600090E081C02FB73EB7ADB7BEB718970FB6B0
:10077000F894BEBF0FBEADBFEDB7FEB73196119670
:10078000CC92119712969C9389E990E06CC02CB39F
:100790003FB3ADB7BEB718970FB6F894BEBF0FBE44
:1007A000ADBFEDB7FEB731961196CC921197129668
:1007B0009C9388EA90E057C025B734B7ADB7BEB771
:1007C00018970FB6F894BEBF0FBEADBFEDB7FEB71A
:1007D00031961196CC92119712969C9389EB90E0EA
:1007E00042C02EB73DB7ADB7BEB718970FB6F89455
:1007F000BEBF0FBEADBFEDB7FEB731961196CC921E
:10080000119712969C9386EC90E02DC028B134B1DC
:10081000ADB7BEB718970FB6F894BEBF0FBEADBF49
:10082000EDB7FEB731961196CC92119712969C9324
:1008300084EE90E018C062EF70E09FD140C02BB70B
:100840003AB7ADB7BEB718970FB6F894BEBF0FBE94
:10085000ADBFEDB7FEB731961196CC9211971296B7
:100860009C9384ED90E09383828324831582368366
:1008700017821BC08DB79EB708970FB6F8949EBF1E
:100880000FBE8DBFEDB7FEB73196CE010196ADB765
:10089000BEB712969C938E9311978FEF90E093833F
:1008A0008283E482F5820683178383D14DB75EB7D6
:1008B000485F5F4F0FB6F8945EBF0FBE4DBFCE01CD
:1008C000019661E170E0A5DE61960FB6F894DEBF97
:1008D0000FBECDBFCF91DF911F910F91FF90EF9091
:1008E000DF90CF9008952F923F924F925F926F9238
:1008F0007F928F929F92AF92BF92CF92DF92EF92B0
:10090000FF920F931F93DF93CF9300D000D000D0BE
:10091000CDB7DEB71BBA8FEF8ABB81E088BB87BB40
:1009200085EC84BB84EC85BB8BB780648BBF15BE24
:1009300016BE80E48ABF19BE80E888B910BEE1DB2C
:10094000B89A35DEB898789481DE5DDE83E060E0A9
:1009500080DE88E091E06BE070E05BDE4E010894A1
:10096000811C911CC40160E270E046E050E0FED0C2
:10097000CC24DD24760140E9642E41E0742E54013C
:1009800031E3232E26E3322E95E3492E84E3582EBD
:1009900000E010E0BDDB063011050CF04BC0999B68
:1009A00004C09B9B02C09D9945C084EF91E0F30178
:1009B0003197F1F70197D9F7999907C09B9905C02D
:1009C000F501E00FF11F508225C0999907C09D994C
:1009D00005C0F501E00FF11F40821CC09B9907C0C4
:1009E0009D9905C0F501E00FF11F308213C0999960
:1009F00005C0F501E00FF11F20820CC09B9905C0D6
:100A0000F501E00FF11F82E304C0F501E00FF11FD3
:100A100083E3808380E060E01CDEC40166E070E078
:100A2000F8DD8CED95E0F3013197F1F70197D9F7F7
:100A30000F5F1F4FC114D104E104F10419F0C70185
:100A4000B60110DE9C99A6CFDEDDC40169D06B0132
:100A50007C0108DEC40160E270E046E050E086D030
:100A60008CED95E0F3013197F1F70197D9F790CF2D
:100A70000F931F93DF93CF93CDB7DEB7A0970FB639
:100A8000F894DEBF0FBECDBF8C01DE011196FC01D4
:100A900080E201900D928150E1F7F801808180762B
:100AA000803491F58181813061F4ADDD80E061E0D9
:100AB000D0DDF801828180FF02C0A89A25C0A898E5
:100AC00023C08A3041F4F801828180FF02C0AA9AD3
:100AD0001BC0AA9819C0823061F485B381708093DD
:100AE000150185E191E0909325018093240181E037
:100AF0000CC0863049F487DD80E060E0AADDCE01DD
:100B0000019660E270E085DD80E0A0960FB6F89473
:100B1000DEBF0FBECDBFCF91DF911F910F91089522
:100B20001F93FC0199278827BC01E894119110328A
:100B3000E9F3193010F01E30C8F31B3249F01D32B2
:100B400041F4689405C020D0610F711D811D911D75
:100B5000119110531A30B8F33EF49095809570952A
:100B600061957F4F8F4F9F4F1F910895DC0101C00A
:100B70006D9341505040E0F70895FB01DC01019076
:100B80000D920020E1F70895592F482F372F262F77
:100B9000660F771F881F991F660F771F881F991F81
:100BA000620F731F841F951F660F771F881F991F81
:100BB0000895AEE0B0E0EEEDF5E098C20D891E8933
:100BC00086E08C831A8309838FEF9FE79E838D8352
:100BD0009E01275E3F4FCE0101966F89788DA90156
:100BE00009D02F813885020F131FF80110822E962D
:100BF000E4E098C2ABE0B0E0EFEFF5E069C23C01A1
:100C00002B015A01FC0117821682838181FD03C0EA
:100C10006FEF7FEFB9C19AE0892E1E010894211C65
:100C2000311CF3012381F20123FD859123FF819182
:100C30002F01882309F4A5C1853239F423FD85915C
:100C400023FF81912F01853221F490E0B301B6D1C9
:100C5000E8CF982FFF24EE249924FFE1FF15D0F070
:100C60009B3269F09C3228F4903259F0933291F41F
:100C70000EC09D3249F0903369F441E024C052E047
:100C8000F52A84E0F82A28C098E0F92A25C0E0E196
:100C9000FE2A22C0F7FC29C0892F80538A3070F4C5
:100CA000F6FE05C0989C902C1124980E15C0E89C67
:100CB000E02C1124E80EF0E2FF2A0EC09E3229F447
:100CC000F6FC5FC140E4F42A07C09C3619F450E8F2
:100CD000F52A02C0983649F4F20123FD959123FFCD
:100CE00091912F01992309F0B8CF892F8554833032
:100CF00018F08052833038F444E050E0A40EB51E62
:100D00005FE359830FC0933631F0933779F0933511
:100D100009F052C01FC0F5018081898342E050E094
:100D2000A40EB51E610101E010E011C0F501C08004
:100D3000D180F6FC03C06FEF7FEF02C0692D70E039
:100D400042E050E0A40EB51EC6012DD18C015FE734
:100D5000F52213C0F501C080D180F6FC03C06FEF0F
:100D60007FEF02C0692D70E042E050E0A40EB51E96
:100D7000C6010ED18C0150E8F52AF3FE06C018C05A
:100D800080E290E0B3011AD1EA948E2D90E008172A
:100D90001907B0F30DC0F601F7FC8591F7FE8191BC
:100DA0006F0190E0B3010AD1E110EA9401501040C4
:100DB0000115110581F7E2C0943611F0993661F5FD
:100DC000F7FE08C0F501208131814281538184E022
:100DD00090E00AC0F501808191819C01442737FD94
:100DE0004095542F82E090E0A80EB91E9FE6F922AC
:100DF00057FF09C050954095309521953F4F4F4F73
:100E00005F4FE0E8FE2ACA01B901A1012AE030E003
:100E100001D1D82ED2183FC0953729F41F2D1F7E3F
:100E20002AE030E01DC01F2D197F9F3661F09037FA
:100E300020F4983509F0A5C00FC0903739F09837E5
:100E400009F09FC004C028E030E00AC0106114FD22
:100E5000146020E130E004C014FD166020E132E0AF
:100E600017FF08C0F501608171818281938144E0A0
:100E700050E008C0F50180819181BC0180E090E0E4
:100E800042E050E0A40EB51EA101C4D0D82ED21865
:100E90008FE7F82EF122F6FE0BC05EEFF522D91493
:100EA00038F4F4FE07C0F2FC05C08FEEF82202C051
:100EB0001D2D01C0192DF4FE0DC0FE01ED0DF11D1B
:100EC0008081803319F499EEF92208C01F5FF2FE89
:100ED00005C003C08F2D867809F01F5F0F2DF3FC2E
:100EE00013C0F0FE0EC01E1510F09D2C0AC09D2CE4
:100EF0009E0C911A1E2D05C080E290E0B3015ED0D9
:100F00001F5F1E15C8F304C01E1510F4E11A01C0BE
:100F1000EE2404FF0EC080E390E0B3014FD002FF47
:100F20001BC001FD03C088E790E00EC088E590E09B
:100F30000BC0802F867881F001FF02C08BE201C0D8
:100F400080E2F7FC8DE290E0B30138D005C080E389
:100F500090E0B30133D09A94D914C8F3DA94F10134
:100F6000ED0DF11D808190E0B30128D0DD20B1F7B7
:100F700005C080E290E0B30121D0EA94EE20C9F7E9
:100F800050CEF30166817781CB012B96E2E1BCC0A4
:100F9000FC010590615070400110D8F78095909544
:100FA0008E0F9F1F0895FC01615070400190011049
:100FB000D8F7809590958E0F9F1F08950F931F93DC
:100FC000CF93DF938C01EB018B8181FF1BC082FFEC
:100FD0000DC02E813F818C819D812817390764F4D3
:100FE000E881F9810193F983E88306C0E885F985F2
:100FF000802F0995892B31F48E819F8101969F83E3
:101000008E8302C00FEF1FEFC801DF91CF911F91B8
:101010000F910895FA01AA27283051F1203181F16A
:10102000E8946F936E7F6E5F7F4F8F4F9F4FAF4FF0
:10103000B1E03ED0B4E03CD0670F781F891F9A1F03
:10104000A11D680F791F8A1F911DA11D6A0F711DB7
:10105000811D911DA11D20D009F468943F912AE0C3
:10106000269F11243019305D3193DEF6CF010895AB
:10107000462F4770405D4193B3E00FD0C9F7F6CFDC
:10108000462F4F70405D4A3318F0495D31FD4052A4
:10109000419302D0A9F7EACFB4E0A695979587953A
:1010A00077956795BA95C9F7009761057105089519
:1010B0009B01AC010A2E06945795479537952795C5
:1010C000BA95C9F7620F731F841F951FA01D08955D
:1010D0002F923F924F925F926F927F928F929F9248
:1010E000AF92BF92CF92DF92EF92FF920F931F9336
:1010F000CF93DF93CDB7DEB7CA1BDB0B0FB6F894E7
:10110000DEBF0FBECDBF09942A88398848885F8426
:101110006E847D848C849B84AA84B984C884DF8097
:10112000EE80FD800C811B81AA81B981CE0FD11D7B
:101130000FB6F894DEBF0FBECDBFED010895F89451
:02114000FFCFDF
:101142005AFF4545435225643A4545415248256474
:101152000050412D25643A50422D25640050432D04
:1011620025643A50442D2564005542525248256464
:101172003A5543535243256400535245472D256443
:101182003A5350482D256400454543522D25643A73
:1011920045454152482D25640043522D25643A436A
:1011A20053522D2564005350482D25643A53504C18
:1011B2002D256400474943522D25643A474946523A
:1011C2002D2564004143535225643A4F53414C2527
:1011D200640048656C6C6F20416C657865790043EA
:1011E2006F6D6D20256C64005374617274696E6753
:0411F2002E2E2E006F
:00000001FF
