:100000000C943A030C9457030C9457030C94570325
:100010000C9457030C9457030C9457030C945703F8
:100020000C9457030C9457030C9457030C945703E8
:100030000C9457030C9457030C9457030C945703D8
:100040000C9457030C9457030C9457030C945703C8
:100050000C9459030C9485030C9457030C94570388
:100060000C9457030C9457030C9457030C945703A8
:100070000C94FA030C9426040C945703445331381F
:100080005832305F726563616C6C5F45323A205361
:10009000686F72742043697263756974210D00443E
:1000A0005331385832305F726563616C6C5F453232
:1000B0003A2074696D656F7574210D0044533138B1
:1000C0005832305F636F70795F7363726174636815
:1000D0007061643A2053686F72742043697263756B
:1000E0006974210D00445331385832305F726561B4
:1000F000645F736372617463687061643A2053680B
:100100006F72742043697263756974210D004453E2
:1001100031385832305F77726974655F736372612A
:100120007463687061643A2053686F727420436925
:100130007263756974210D00445331385832305F51
:1001400073746172745F6D6561733A2053686F7286
:10015000742043697263756974210D000D0020B02D
:1001600043200020666D743A20002064656369B006
:1001700043200020636F6E763A20002A20494E56B5
:10018000414C4944202A0020004232302F303900AF
:10019000204232302F313020004232302F313100B6
:1001A0004232302F3132005332302F3039002000AC
:1001B00020545F7261773D0020435243204F2E4B05
:1001C0002E200020435243204641494C20004275D6
:1001D00073204572726F720D004E6F2053656E73FF
:1001E0006F7220666F756E640D0020004352433AB3
:1001F0000053503A00B0430030002E0020435243D9
:10020000204F2E4B2E200020435243204641494C84
:10021000200028203F2029002832322900283138A8
:100220004229002831385329002000534E3A20003B
:100230004352433A0046433A00204453313858323F
:10024000302053656E736F7228732920617661695F
:100250006C61626C650D0A002A2A2A2070726F6236
:100260006C656D73202D2072657363616E6E696EAF
:100270006720627573202E2E2E000D0A566572625D
:100280006F7365206F75747075740D0A0053746117
:100290007274206D6561732E206661696C656420DF
:1002A0002873686F727420636972637569743F297B
:1002B000000D0A00435243204572726F7220286C71
:1002C0006F737420636F6E6E656374696F6E3F2920
:1002D00000203D200053656E736F722320000D0ACD
:1002E00000435243204572726F7220286C6F737402
:1002F00020636F6E6E656374696F6E3F2900203DE9
:10030000200053656E736F722320000D0A436F6ED9
:10031000766572745F5420666F7220616C6C205336
:10032000656E736F727320616E6420526561642024
:1003300053656E736F722062792053656E736F72AE
:100340000D0A005374617274206D6561732E20660E
:1003500061696C6564202873686F727420636972C8
:10036000637569743F29000D0A00435243204572AA
:10037000726F7220286C6F737420636F6E6E65638A
:1003800074696F6E3F2900203D200053656E736FC6
:10039000722320000D0A436F6E766572745F5420DD
:1003A000616E6420526561642053656E736F7220C4
:1003B00062792053656E736F72202872657665725C
:1003C0007365206F72646572290D0A000D0A000DB5
:1003D0000A5468657265206973206F6E6C79206FAE
:1003E0006E652073656E736F72202D3E2044656DBF
:1003F0006F206F662022445331385832305F726567
:1004000061645F6465636963656C736975735F7369
:10041000696E676C65223A0D0A0020706F7765720D
:1004200065640D0A0065787465726E616C6C7900A4
:100430007061726173697465002077686963682010
:10044000697320004453313842323000445331380C
:10045000323200445331385332302F445331383222
:1004600030002069732061200053656E736F722322
:1004700020000D0A00203A20002320696E204275DA
:1004800073203A0020445331385832302053656E7F
:10049000736F7228732920617661696C61626C6583
:1004A0003A0D0A002D2D2D2D2D2D2D2D2D2D2D2DDF
:1004B0002D2D2D2D2D2D2D2D2D2D2D2D2D2D2D2D6C
:1004C0002D2D2D2D2D2D2D2D2D2D2D2D2D2D2D0089
:1004D0000D0A4453313858323020312D5769726536
:1004E0002D5265616465722044656D6F20627920CC
:1004F0004D617274696E2054686F6D61730D0A00EE
:10050000766572696679206661696C65640D0A00BA
:10051000544820616E6420544C2076657269666987
:1005200065640D0A00445331387832302045455017
:10053000524F4D20636F70696564206261636B2068
:10054000746F20736372617463687061640D0A0074
:10055000544820616E6420544C20696E207363728D
:10056000617463687061642073657420746F2030F7
:100570000D0A007363726174636870616420636F55
:100580007069656420746F204453313878323020AC
:10059000454550524F4D0D0A0054482B3120616E95
:1005A0006420544C2B31207772697474656E20740A
:1005B0006F20736372617463687061640D0A000D6B
:1005C0000A4453313878323020454550524F4D203F
:1005D000737570706F7274207465737420666F72B7
:1005E0002066697273742073656E736F720D0A00F2
:1005F0000D0A00202F200054482F544C20696E20F3
:1006000073637261746368706164206F66207365E0
:100610006E736F722031206E6F77203A200020B009
:1006200043002064656369B0432C200020B0430080
:1006300020B043652D342C20004275732045727222
:100640006F720D0A004E6F2053656E736F722066D5
:100650006F756E640D0A000D0A5363616E6E696EEC
:10066000672042757320666F7220445331385832C8
:10067000300D0A0011241FBECFEFD8E0DEBFCDBF82
:1006800011E0A0E0B1E0EEECFFE102C005900D92B8
:10069000A230B107D9F711E0A2E0B1E001C01D928C
:1006A000AB3BB107E1F70E94E50A0C94E50F0C940F
:1006B00000001F920F920FB60F9211242F938F9369
:1006C0009F93EF93FF939091C0002091C600E0911B
:1006D0004401EF5FEF7180914501E81711F482E06A
:1006E00008C0892F8871E0934401F0E0EE5DFE4F71
:1006F000208380934601FF91EF919F918F912F91DD
:100700000F900FBE0F901F9018951F920F920FB66B
:100710000F9211248F939F93EF93FF939091420137
:1007200080914301981769F0E0914301EF5FEF7109
:10073000E0934301F0E0EE5FFE4F80818093C600BE
:1007400005C08091C1008F7D8093C100FF91EF9122
:100750009F918F910F900FBE0F901F9018959C0145
:1007600010924201109243011092440110924501EF
:1007700097FF04C082E08093C0003F773093C500AC
:100780002093C40088E98093C10086E08093C20072
:100790000895282F909142019F5F9F71809143019E
:1007A0009817E1F3E92FF0E0EE5FFE4F208390937E
:1007B00042018091C10080628093C1000895CF936F
:1007C000DF93EC0103C021960E94C903888188232E
:1007D000D1F7DF91CF910895CF93DF93EC0102C061
:1007E0000E94C903FE01219684918823C9F7DF91F5
:1007F000CF9108951F920F920FB60F9211242F934D
:100800008F939F93EF93FF939091C8002091CE0018
:10081000E0918901EF5FEF7180918A01E81711F48F
:1008200082E008C0892F8871E0938901F0E0E959DE
:10083000FE4F208380938B01FF91EF919F918F91C9
:100840002F910F900FBE0F901F9018951F920F922F
:100850000FB60F9211248F939F93EF93FF93909174
:10086000870180918801981769F0E0918801EF5F16
:10087000EF71E0938801F0E0E95BFE4F80818093A7
:10088000CE0005C08091C9008F7D8093C900FF9183
:10089000EF919F918F910F900FBE0F901F90189521
:1008A000DC0120E040E050E098E115C0FD01E40FDC
:1008B000F51FE08138E08E2F8227F82FF17080FD40
:1008C00029272695F13009F42068315011F0E6957A
:1008D000F2CF4F5F5F4F4617570741F7822F0895BA
:1008E000382FFB01918180E02081422F50E0482B7E
:1008F000592B303171F4CA018E7FA3E0880F991F04
:10090000AA95E1F726814CE050E0421B5109480FBF
:10091000591F57FD02C0A0E004C0509541955F4F9C
:10092000A1E0383211F0323291F48481282F30E086
:10093000207630702032310539F02034310531F025
:10094000232B29F4487F03C04C7F01C04E7F9A01BE
:100950002F70307080E892E0289FB001299F700DC1
:10096000389F700D1124AA2311F460507E4F9A0114
:10097000F4E036952795FA95E1F7AB01452F552719
:1009800046954695C90173E0880F991F7A95E1F75E
:10099000220F331F820F931F480F591FAA2319F0EC
:1009A000509541955F4FCA018A5D9D4F8950974090
:1009B00010F040ED57E0CA0108951F93CF93DF93E5
:1009C000382FFB01918180E02081C22FD0E0C82B1D
:1009D000D92B303171F4CE018E7F13E0880F991F2F
:1009E0001A95E1F72681CCE0D0E0C21BD109C80FEF
:1009F000D91FD7FD02C010E004C0D095C195DF4FCC
:100A000011E0383211F0323291F48481282F30E035
:100A1000207630702032310539F02034310531F044
:100A2000232B29F4C87F03C0CC7F01C0CE7FBE0139
:100A3000B4E076956795BA95E1F780E090E020E123
:100A400037E240E050E00E94FD0ECF70D07021E709
:100A500032E0A901C49F9001C59F300DD49F300D95
:100A6000112440E050E0260F371F481F591F112363
:100A700039F050954095309521953F4F4F4F5F4F3E
:100A8000B901CA01DF91CF911F9108950F931F9370
:100A90008C010E94460D84EBB8010E94A90E81E0F2
:100AA0000E94050E182F0E94460D111111E0812F92
:100AB0001F910F9108951F93CF93DF93EC010E9434
:100AC000460D0E941F0D8823A1F088EBBE010E94F5
:100AD000A90E1FEF11501F3F29F081E00E94050E63
:100AE0008823C1F3112311F080E008C08FE990E062
:100AF00002C08CE790E00E94EC0381E0DF91CF918F
:100B00001F9108951F93CF93DF93182FEB010E943D
:100B1000460D0E941F0D882369F0113029F084E4EE
:100B2000BE010E94AD0E04C084E4BE010E94A90E65
:100B300080E005C088E391E00E94EC0382E0DF9151
:100B4000CF911F9108951F93CF93DF93182FEB013F
:100B50000E94460D0E941F0D8823A9F0113029F034
:100B600088E4BE010E94AD0E04C088E4BE010E946C
:100B7000A90E80E49CE90197F1F7113011F00E9471
:100B80003B0D80E005C08CEB90E00E94EC0382E01E
:100B9000DF91CF911F910895EF92FF920F931F93D2
:100BA000CF93DF939C01062FF72EE42E8EEBB90135
:100BB0000E94A90E202F3F2DC901EC0110E004C0B6
:100BC0000E94310E89931F5F1E15D0F3802F9F2D39
:100BD00069E070E00E945004811183E0DF91CF91C1
:100BE0001F910F91FF90EF900895FF920F931F9325
:100BF000CF93DF93EC018B01F42E0E94460D0E94EF
:100C00001F0D882331F0CE01B8014F2D0E94CC0575
:100C100005C085EE90E00E94EC0381E0DF91CF916A
:100C20001F910F91FF900895AF92BF92CF92DF92E4
:100C3000FF920F931F93DF93CF93CDB7DEB7299722
:100C40000FB6F894DEBF0FBECDBF8C015B010E94D2
:100C5000460DC8016E010894C11CD11CB60149E0C3
:100C60000E94CC05F82E882351F4F8018081B6014A
:100C70000E94DD04F50160837183828393838F2D4D
:100C800029960FB6F894DEBF0FBECDBFCF91DF918E
:100C90001F910F91FF90DF90CF90BF90AF9008957C
:100CA000CF92DF92EF92FF920F931F93DF93CF9338
:100CB000CDB7DEB729970FB6F894DEBF0FBECDBF14
:100CC000082F6B0180E090E07E010894E11CF11C8C
:100CD000B70149E00E94CC05182F882339F4802FF2
:100CE000B7010E947004F60191838083812F2996B9
:100CF0000FB6F894DEBF0FBECDBFCF91DF911F912D
:100D00000F91FF90EF90DF90CF900895AF92BF9238
:100D1000CF92DF92FF920F931F93DF93CF93CDB7C4
:100D2000DEB729970FB6F894DEBF0FBECDBF8C019A
:100D30005B010E94460DC8016E010894C11CD11CC4
:100D4000B60149E00E94CC05F82E882341F4F80151
:100D50008081B6010E947004F501918380838F2DFC
:100D600029960FB6F894DEBF0FBECDBFCF91DF91AD
:100D70001F910F91FF90DF90CF90BF90AF9008959B
:100D8000FF920F931F93CF93DF93EC01162F042F45
:100D9000F22E0E94460D0E941F0D8823A1F08EE4C2
:100DA000BE010E94A90E812F0E940A0E802F0E9470
:100DB0000A0E6881683211F0623219F48F2D0E9498
:100DC0000A0E80E005C08EE091E00E94EC0381E015
:100DD000DF91CF911F910F91FF9008958F929F9275
:100DE000AF92BF92CF92DF92EF92FF920F931F9339
:100DF000DF93CF93CDB7DEB76A970FB6F894DEBF17
:100E00000FBECDBF7A012A3008F48EC0613C2DEBB5
:100E1000720720EF82072FEF92070CF485C060382D
:100E2000E6E97E07E8E98E07E0E09E070CF07CC06B
:100E300097FD02C000E008C090958095709561957F
:100E40007F4F8F4F9F4F01E039E0C32ED12CCC0E46
:100E5000DD1E10E04E010894811C911C23E1A22E9E
:100E6000B12CAC0EBD1E2AE030E040E050E00E9404
:100E70002F0F2B8B3C8B4D8B5E8B6F8B788F898FDD
:100E80009A8FD401F50188E001900D928150E1F72D
:100E90008D81805DF60181936F011F5F69817A8189
:100EA0008B819C811616170618061906E4F2812F0D
:100EB0008250823048F4E12FFF27E7FDF095EC0FD8
:100EC000FD1F80E381871F5FFE013996812F9927DF
:100ED00087FD9095002351F0E80FF91F8DE2808384
:100EE00090E09E01275F3F4F4EE204C0E80FF91FDC
:100EF0008BE2F5CFF701E90FF11DD901A10FB11D6B
:100F00008C9180839F5F1150133031F4F701E90F0A
:100F1000F11D40839F5FEECF1F3F61F7E90EF11C8B
:100F2000F701108280E001C081E06A960FB6F89464
:100F3000DEBF0FBECDBFCF91DF911F910F91FF900C
:100F4000EF90DF90CF90BF90AF909F908F900895DB
:100F5000CF92DF92EF92FF920F931F93DF93CF9385
:100F6000CDB7DEB727970FB6F894DEBF0FBECDBF63
:100F70007B01473008F454C02CEF893192070CF400
:100F80004FC0E7E280319E070CF04AC097FD02C0D7
:100F900000E004C0909581959F4F01E06E01089498
:100FA000C11CD11C10E06AE070E00E941C0F9B0184
:100FB000805DF60181936F011F5FC9011216130650
:100FC00094F3FE013196812F992787FD9095002398
:100FD00051F0E80FF91F8DE2808390E09E012F5FB2
:100FE0003F4F4EE204C0E80FF91F8BE2F5CFF70147
:100FF000E90FF11DD901A10FB11D8C9180839F5F75
:10100000115031F4F701E90FF11D40839F5FEFCFDD
:101010001F3F69F7E90EF11CF701108280E001C063
:1010200081E027960FB6F894DEBF0FBECDBFCF91FB
:10103000DF911F910F91FF90EF90DF90CF90089577
:101040000F931F93CF93DF938C01EB01F801808105
:10105000BE010E94350EF801808381508D3F10F053
:1010600081E008C08881883221F0803111F082321D
:1010700069F780E0DF91CF911F910F910895CF9292
:10108000DF92EF92FF920F931F93CF93DF938C0128
:101090007B01C0E0D0E06B010894C108D10835C0E5
:1010A000209719F485E392E00CC0CC15DD0521F4FE
:1010B00080E392E00E94EC03C130D10521F48BE281
:1010C00092E00E94EC03F801EC0FFD1F80810E946A
:1010D000BA0E89E292E00E94EC032097A9F4F8018D
:1010E0008081803119F483E292E00CC0883219F4D7
:1010F0008DE192E007C0823219F488E192E002C0EB
:1011000082E192E00E94EC032196CE15DF0540F2C9
:10111000C80168E070E00E945004882319F087E05D
:1011200092E002C08CEF91E00E94EC03DF91CF913E
:101130001F910F91FF90EF90DF90CF9008952F9225
:101140003F924F925F926F927F928F929F92BF9247
:10115000CF92DF92EF92FF920F931F93DF93CF9383
:10116000CDB7DEB7AC970FB6F894DEBF0FBECDBFDC
:10117000BB24BA941E010894211C311CE9E06E2E98
:10118000712C6C0E7D1E72E1472E512C4C0E5D1E93
:101190006CE1862E912C8C0E9D1E8B2DB1010E9430
:1011A000350EB82E4FEF841731F489ED91E00E948F
:1011B000EC038FEF3CC15EEF851731F48EEC91E0CC
:1011C0000E94EC038EEF33C1C10168E070E00E9421
:1011D0003F088981883229F0803119F0823209F084
:1011E0001EC18DE00E94C9038EEB0E940A0E83018E
:1011F0000E94310EF80181938F01E415F505C1F7C6
:1012000081EF91E00E94EC0300E010E007C008309D
:10121000110521F48CEE91E00E94EC03F301E00F44
:10122000F11F80810E94BA0E8AEE91E00E94EC03C9
:101230000F5F1F4F0930110551F7C30169E070E0DE
:101240000E945004882319F083EC91E002C088EBDF
:1012500091E00E94EC038DE00E94C903098510E033
:10126000DA84CC240C291D2980EB91E00E94EC0348
:10127000812F0E94BA0E802F0E94BA0E8EEA91E052
:101280000E94EC038981803119F487EA91E01CC047
:10129000883211F08232D1F48D85282F30E0C901D7
:1012A000807690708036910519F480EA91E00CC048
:1012B00026FF03C089E991E007C025FF03C080E94C
:1012C00091E002C089E891E00E94EC0387E891E098
:1012D0000E94EC0339818985082F10E0FA84EE24FE
:1012E0000E291F29303171F4C8018E7F53E0880F19
:1012F000991F5A95E1F72F850CE010E0021B1109A8
:10130000080F191F17FD02C040E004C01095019599
:101310001F4F41E0383211F0323291F48D85282F81
:1013200030E0C901807690708036910549F026FF43
:1013300002C00E7F05C025FF02C00C7F01C0087FE0
:10134000442311F48BE201C08DE20E94C903C8015D
:1013500044E0969587954A95E1F790E00E94E10E6A
:101360008AEF91E00E94EC03802F8F7090E021E7DC
:1013700032E0AC01429FC001439F900D529F900DFF
:101380001124B4014AE050E00E94800F00E010E018
:1013900006C088EF91E00E94EC030F5F1F4FF4013D
:1013A00001900020E9F73197E819F90984E090E00D
:1013B0008E1B9F0B0817190760F3C4010E94DF03FF
:1013C00085EF91E00E94EC038981B3010E947004D3
:1013D0008C0157E0803D950719F48BE791E019C027
:1013E00083E791E00E94EC03C8010E94E10E8AE6C7
:1013F00091E00E94EC03C801B2014AE00E94A807F4
:1014000083E691E00E94EC03C2010E94DF038EE5B7
:1014100091E00E94EC0380E091E00E94DF03BB209A
:1014200009F0BBCE8CE591E00E94EC0380E0AC9625
:101430000FB6F894DEBF0FBECDBFCF91DF911F91E5
:101440000F91FF90EF90DF90CF90BF909F908F9083
:101450007F906F905F904F903F902F9008950F93E3
:101460001F938C018CE891E0B80149E00E94F505DA
:1014700087EF95E00E94EC03F801828190E00E94E2
:10148000E10E83EF95E00E94EC03F801838190E088
:101490000E94E10E80EF95E00E94EC031F910F91F6
:1014A00008950F931F93DF93CF93CDB7DEB72A979D
:1014B0000FB6F894DEBF0FBECDBF8C010E94E10EC7
:1014C00082E296E00E94EC03C8018E010F5F1F4F7D
:1014D000B8014AE00E94A807C8010E94DF038EE11C
:1014E00096E00E94EC032A960FB6F894DEBF0FBE7A
:1014F000CDBFCF91DF911F910F9108958F929F9251
:10150000AF92BF92DF92EF92FF920F931F93DF9300
:10151000CF93CDB7DEB729970FB6F894DEBF0FBED5
:10152000CDBF87E596E00E94EC030E94460D8FEF49
:10153000898300E010E022E0E22EF12CEC0EFD1E8B
:101540004E010894811C911C9AE0A92EB12CAC0E7E
:10155000BD1E21C0C401B7010E94200889818F3FB0
:1015600019F485E496E004C08E3F29F489E396E0FF
:101570000E94EC0317C0D701F80183E0EE0FFF1FB4
:101580008A95E1F7E457FE4F8D918193AA15BB052B
:10159000D9F70F5F1F4FD02E8981882319F00530AE
:1015A0001105C1F68D2D29960FB6F894DEBF0FBE3A
:1015B000CDBFCF91DF911F910F91FF90EF90DF9002
:1015C000BF90AF909F908F9008952F923F924F922F
:1015D0005F926F927F928F929F92AF92BF92CF92C3
:1015E000DF92EF92FF920F931F93DF93CF93CDB7CC
:1015F000DEB769970FB6F894DEBF0FBECDBF83E3A9
:1016000090E00E94AF0383E290E065E270E044E284
:1016100050E023E00E94900D789480ED94E00E94C9
:10162000EC0384EA94E00E94EC030E947E0A882E78
:1016300090E00E94E10E84E894E00E94EC031CE834
:10164000E12E11E0F12E00E010E018C089E794E0EF
:101650000E94EC03C8010E94E10E85E794E00E941D
:10166000EC03C70168E070E00E943F0882E794E065
:101670000E94EC0388E090E0E80EF91E0F5F1F4F18
:10168000802F8150881510F3BCE8EB2EB1E0FB2EC3
:10169000A1E0CA2ED12C082D10E0F3E0000F111F9D
:1016A000FA95E1F70E0D1F1D36C089E694E00E9401
:1016B000EC03C6010E94E10E82E694E00E94EC0376
:1016C000F7018081803119F483E594E007C082320C
:1016D00019F48CE494E002C084E494E00E94EC03EA
:1016E00089E394E00E94EC03C7010E944605882329
:1016F00019F480E394E002C085E294E00E94EC03D8
:101700008AE194E00E94EC0388E090E0E80EF91E84
:101710000894C11CD11CE016F10639F6882009F4A2
:1017200077C08FEB95E00E94EC038E01095F1F4F9D
:10173000C8010E942F0AF984EA84E394F3948CE8A8
:1017400091E06F2D4E2D20E60E94C00689E995E0BC
:101750000E94EC03C8010E942F0A80E06CE871E04F
:101760000E94A30583E795E00E94EC038CE891E0DA
:1017700060E040E020E60E94C00680E595E00E941F
:10178000EC03C8010E942F0A8CE891E00E945B05DF
:1017900085E295E00E94EC038CE891E0B80149E015
:1017A0000E94F5058985F81631F48A85E81619F442
:1017B00080E195E002C080E095E00E94EC03CE015C
:1017C00007960E942F0A91E0891611F58FEC93E09D
:1017D0000E94EC0310918C0180E060E070E00E94B8
:1017E00082058CE49DE120E931E0F9013197F1F7C0
:1017F0000197D9F7812FBE016F5F7F4F0E9450067E
:1018000089819A810E94510A8CEC93E00E94EC033A
:10181000E0E96E2EE1E07E2E1E010894211C311CB1
:1018200070E1472E512C4C0E5D1E9924882011F436
:101830009924939484E993E00E94EC03F82C61E0EE
:10184000C62ED12C42C0C6018F19910953E0880FD2
:10185000991F5A95E1F700271127081B190B045708
:101860001E4F80E0B8010E948205882341F58CE478
:101870009DE1F3013197F1F70197D9F78BE893E0F8
:101880000E94EC038F2D90E00E94E10E87E893E028
:101890000E94EC03C801B1010E948606882329F446
:1018A00089819A810E94510A05C08AE693E00E94CC
:1018B000EC03939487E693E00E94EC0305C083E475
:1018C00093E00E94EC039394FA94FF2009F0BBCFBD
:1018D0008BE093E00E94EC0380E060E070E00E9407
:1018E0008205882309F07CC08CE49DE1F3013197E7
:1018F000F1F70197D9F74CE8E42E41E0F42E00E02F
:1019000010E025C082E093E00E94EC030F5F1F4FC0
:10191000C8010E94E10E8EEF92E00E94EC03C70125
:10192000B1010E948606882329F489819A810E9448
:10193000510A05C081EE92E00E94EC0393948EED73
:1019400092E00E94EC03E8E0F0E0EE0EFF1E0815C6
:10195000C8F23CE8A32E31E0B32ECC24DD243DC0F8
:1019600085ED92E00E94EC030894C11CD11CC601D5
:101970000E94E10E81ED92E00E94EC03C501BE01E0
:101980006D5F7F4F0E9414068823D1F4EB80FC80AA
:101990000D811E81C801B7010E94C50E80E396E04B
:1019A0000E94EC03C801B701A2012AE00E94EE06E2
:1019B000C2010E94DF038CE296E00E94EC0305C0A6
:1019C00084EB92E00E94EC03939481EB92E00E94FE
:1019D000EC0388E090E0A80EB91EC81408F205C018
:1019E0008DE892E00E94EC0393948AE792E00E94D3
:1019F000EC0380E060E070E00E9482058CE49DE1F1
:101A0000F3013197F1F70197D9F70E949F089920C8
:101A100071F088E592E00E94EC030E947E0A882E15
:101A200090E00E94E10E89E392E00E94EC0380E3E3
:101A300095E7F3013197F1F70197D9F7F6CEE091E9
:101A4000B701F091B80180819091B6018923089582
:101A5000E091B401F091B50180819091B601892B9C
:101A60008083E091B901F091BA0180819091B60133
:101A7000892B80830895E091B901F091BA0190819A
:101A80008091B6018095892380830895E091B40107
:101A9000F091B50190818091B60180958923808372
:101AA000E091B901F091BA0180819091B601892B42
:101AB000808380E897E00197F1F72FB7F894E091E1
:101AC000B901F091BA0190818091B6018095892386
:101AD0008083E091B401F091B50180819091B601CD
:101AE000892B808380E091E00197F1F7E091B701C5
:101AF000F091B80140813091B6012FBF80E896E0A7
:101B00000197F1F7E091B701F091B80180819091D0
:101B1000B601892311F481E00895842F8323089569
:101B20005093BA014093B9017093B5016093B40129
:101B30009093B8018093B70181E090E002C0880FD4
:101B4000991F2A95E2F78093B6010E94460D0895E9
:101B50000F931F93182F0FB7F894E091B401F091F1
:101B6000B50190818091B601809589238083E091B1
:101B7000B901F091BA0180819091B601892B8083DF
:101B80008AE08A95F1F7112399F0E091B901F0917B
:101B9000BA0190818091B601809589238083E0917C
:101BA000B401F091B50180819091B601892B8083B9
:101BB00085E48A95F1F7E091B701F091B801808151
:101BC0009091B601892309F410E085EE8A95F1F72A
:101BD000E091B401F091B5018081892B8083E0917F
:101BE000B901F091BA0190818091B6018095892365
:101BF0008083662311F00E94280D0FBF85E38A952C
:101C0000F1F7812F1F910F910895817060E00E947C
:101C1000A80D08950F931F93182F08E0812F81704E
:101C20000E94050E1695811110680150B9F7812F99
:101C30001F910F9108950F931F93182F08E0812F84
:101C40008170013011F060E001C061E00E94A80DD8
:101C5000169581111068015091F7812F1F910F91F6
:101C600008958FEF0E940A0E0895DF92EF92FF927F
:101C70000F931F93CF93DF93E82EEB010E94460D45
:101C80008823A1F580EF0E940A0E80E4FF24182F1C
:101C900098EFD92ED80E81E00E94050E082F81E022
:101CA0000E94050E882329F0002371F08EEFF82E94
:101CB0001FC0002349F41E1528F0888180FF04C04E
:101CC000E11611F0F12E01E0802F0E94050E8881AF
:101CD00086958883002311F08068888311501D1534
:101CE000D1F6112329F02196812FD1CFFF24FA9428
:101CF0008F2DDF91CF911F910F91FF90EF90DF908B
:101D00000895FF920F931F93CF93DF93082FEB015A
:101D1000F42E0E94460D209751F085E50E940A0E90
:101D200018E089910E940A0E1150D9F703C08CEC7B
:101D30000E940A0EFF2021F0802F0E941B0E03C07C
:101D4000802F0E940A0EDF91CF911F910F91FF907B
:101D5000089540E00E94810E089541E00E94810EA6
:101D600008958F708A3010F0895C01C0805D0E94F8
:101D7000C90308951F93182F82958F700E94B10E8A
:101D8000812F0E94B10E1F910895DF93CF93CDB79D
:101D9000DEB72F970FB6F894DEBF0FBECDBFAE01F2
:101DA0004F5F5F4F2AE030E00E94A10F0E94DF03E7
:101DB0002F960FB6F894DEBF0FBECDBFCF91DF9147
:101DC0000895DF93CF93CDB7DEB72A970FB6F89477
:101DD000DEBF0FBECDBFBE016F5F7F4F4AE050E058
:101DE0000E94800F0E94DF032A960FB6F894DEBF90
:101DF0000FBECDBFCF91DF910895629FD001739F39
:101E0000F001829FE00DF11D649FE00DF11D929F96
:101E1000F00D839FF00D749FF00D659FF00D9927D5
:101E2000729FB00DE11DF91F639FB00DE11DF91FF9
:101E3000BD01CF011124089597FB092E07260AD072
:101E400077FD04D027D006D000201AF47095619554
:101E50007F4F0895F6F7909581959F4F089597FBD2
:101E6000092E05260ED057FD04D028D00AD0001C1C
:101E700038F450954095309521953F4F4F4F5F4F27
:101E80000895F6F790958095709561957F4F8F4FE7
:101E90009F4F0895AA1BBB1B51E107C0AA1FBB1F80
:101EA000A617B70710F0A61BB70B881F991F5A95E6
:101EB000A9F780959095BC01CD010895A1E21A2E55
:101EC000AA1BBB1BFD010DC0AA1FBB1FEE1FFF1FDE
:101ED000A217B307E407F50720F0A21BB30BE40B2E
:101EE000F50B661F771F881F991F1A9469F7609575
:101EF0007095809590959B01AC01BD01CF0108952F
:101F0000FB019F01E8944230C4F04532B4F44A30FA
:101F100029F497FB1EF4909581959F4F642F7727A6
:101F20000E944A0F805D8A330CF0895D8193CB015A
:101F30000097A1F716F45DE251931082C9010C9449
:101F4000D50FFA01CF93FF93EF93223044F125325E
:101F500034F5C22FE894CA3049F497FB3EF49095CB
:101F60008095709561957F4F8F4F9F4F2C2F332712
:101F700044275527FF93EF930E945E0FEF91FF9147
:101F8000605D6A330CF0695D6193B901CA0160500C
:101F900070408040904051F716F4CDE2C19310821A
:101FA0008F919F91CF910C94D50FDC01FC01672F8D
:101FB00071917723E1F7329704C07C916D93708320
:0E1FC0006291AE17BF07C8F30895F894FFCFE3
:021FCE000D0004
:00000001FF
