:0A0000000C944F000C9400000C94C7
:10000A0000000C9400000C9400000C9400000C9466
:10001A0000000C9400000C9400000C9400000C9456
:10002A0000000C9400000C9400000C947F000C94C7
:10003A0000000C949E000C9400000C9400000C9498
:10004A0000000C9400000C9400001027E8036400E0
:10005A000A000100001000011000010000005374A2
:10006A00617274204D4F44554C4500257300246934
:10007A003D25640024693D25643A2564000080C05A
:10008A000100020066000D00600268000200890299
:10009A0088000000F894EE27ECBBF1E0FBBFEBBF51
:1000AA00E5BFF8E1F1BDE1BD8DE0A2E0BB27ED932C
:1000BA008A95E9F780E098E0A0E6ED930197E9F7E1
:1000CA00EAE8F0E085919591009761F0A591B591E4
:1000DA0005901590BF01F00105900D920197E1F787
:1000EA00FB01F0CFEFE5EDBFE8E0EEBFC0E6D2E0FE
:1000FA000C94D000EA93FA93EFB7EA931A930A930F
:10010A001BB10CB1E12FEC7189F4E52DF0E0E35954
:10011A00FD4F00835394ECE0E51509F455247394DC
:10012A00ECE0E71519F47724689420F809911991FD
:10013A0012C0EA93FA93EFB7EA93882061F08A949F
:10014A00E92DF0E0E758FD4FE081ECB99394E0E146
:10015A00E91509F49924E991EFBFF991E991189504
:10016A00AA93E0E1E815E9F3F894882011F45D997F
:10017A000DC0E62DF0E0E758FD4FA881A0836394F7
:10018A00E0E1E61509F46624839402C0E881ECB93B
:10019A0078940C948D026F9700E010E0E0E0EBBBDE
:1001AA00EABBEFEFE8BBE7BBE0E0E5BBE4BBEFEFA0
:1001BA00E2BBE2E0E1BBE0E0E3BFE2BFECBFEFBDE0
:1001CA00EEBDEDBDECBDE7BDE6BDEBBDEABDE9BDEB
:1001DA00E8BDE2BDE5BDE4BDE3BDE5BFE4BFE9BFFF
:1001EA00EBB9E8EDEAB9E6E8E0BDE0E0E0BDE3E35B
:1001FA00E9B9E0E8E8B9E0E0E0BFA0E10E945C020A
:10020A00E0E0EA93A0E00E94FD01A0E6B2E00E94CD
:10021A003A02A4E1B5E00E947A0478940F5F1F4F76
:10022A000133E5E71E0714F000E010E0D801E0E52D
:10023A00F0E00E94A4043097B9F5FE013F96FA93C4
:10024A00EA93E5E7F0E0FA93EA93EDE6F2E066274F
:10025A0077270E943A04E0E0EA93A0E00E94FD01B9
:10026A00DE011F960E943A02A4E1B0E00E947A04DD
:10027A00D801E2E3F0E00E94A4043097A9F40E94B6
:10028A000D02E0E0EA93A1E00E94FD010E94410410
:10029A00E8E7F0E0FA93EA93F8010E948C040E94DE
:1002AA003A04DE010E943A02A0916E02A13411F5CD
:1002BA000E944104E0E0EA93AFE0B0E00E949401BA
:1002CA000E944104EEE7F0E0FA93EA93F8010E94F3
:1002DA008C040E94BA04EFE0F0E060E070E00E9453
:1002EA00BA0488E00E9406042C96DE0105D0E2E4F6
:1002FA00E0936E0293CFFFCFBA93AA93A881B981F4
:10030A00EC91E03051F01196A883B983AC9128DFC3
:10031A00AAE0B0E00E947A04F1CF0C940B02BA93DF
:10032A00AA93B981A881109631F0FC81EB816A8188
:10033A0061931197E9F7EB81FC810C94CD02BA9392
:10034A00AA93A991B991EE27FF276D91662311F01F
:10035A003196FBCF0895BA93AA93AA27BB27E991AE
:10036A00F9910590002011F01196FBCFFD01089537
:10037A00FFE0FA95F1F70895A7B3AF70A7BBC19A4A
:10038A00C098F6DFC29AF4DFA6B3C298F1DFC29A28
:10039A00EFDFC298A7FDF5CF0895A07FAB2BA8BBCE
:1003AA00C29A0E94BD01C2980E94BD010895AA93F3
:1003BA00C198A7B3A76FA7BBB8B3BF70A881EDDF79
:1003CA00A881A295EADFC19A0C948D02C29A0E9472
:1003DA00BD01E6B3C2980E94BD01E07F08950E9464
:1003EA00BD01F4DFAE2FF2DFC198E295EA2B089542
:1003FA00AA930E94C101E881F0E0E757FD4FE0812E
:10040A00A981AE0F0E94DC01B980A88022960895C6
:10041A000E94C101A2E00E94DC010E94C101ACE07D
:10042A000E94DC010E94C101A1E00E94DC01E0E01F
:10043A00AE2EBE2E0895AA93EF93FF93A8816894D7
:10044A00AA3019F0E894BD1430F0A394E0E0EA93DE
:10045A00AA2DCEDF36F0B3948FDFC09AA8810E940E
:10046A00DC01FF91EF910C948D02BA93AA931A932F
:10047A00A981BA81ED91A983BA831E2FE03019F0C0
:10048A00A12FD9DFF5CF188123960895AA27BB2774
:10049A001197F1F70895AA93C198A7B3A76FA7BBBD
:1004AA00B8B3BF70A8810E94D201C19A31C0AA9381
:1004BA00C298C098D880E881E058E0938B02E8811E
:1004CA00E054E0938C020E9445040E9445040E9475
:1004DA004504DCDFA0E2DFDFD9DFA8E20E944A049C
:1004EA00A4E00E944A04A5E80E944A04A7B3AF7098
:1004FA00A7BBC19A0E94F401E53011F0E0E008C000
:10050A000E94C101A6E00E94DC010E940D02E1E006
:10051A0021960895BA93AA931A930A93AA81BB8142
:10052A0012960E94B204309759F1AA81BB8114969F
:10053A000E94B2048F01309761F00230E0E01E079A
:10054A00F0F0F80131978F01AA81BB811496ED93DF
:10055A00FC93AA81BB811296ED91FD913196FE938F
:10056A00EE933197AC81A083AA81BB810E94B20429
:10057A00FF232AF0ED91FD913196FE93EE9306C08A
:10058A00AA81BB81EFEFFFEFED93FC9319810881FC
:10059A0025960895BA93AA9326970E94BF0410E05D
:1005AA00AC85BD85E0E0F0E0ED93FC93EA89FB8938
:1005BA003196EA8BFB8B3197E4912E2FE03011F4C0
:1005CA000C94FE03E12FE03039F4253211F411E0E6
:1005DA0002C00E944E040CC1E130A9F4253219F47C
:1005EA000E944E0404C112E040E000E02D3211F4F2
:1005FA0001E0FEC02B3211F44BE2FAC0203211F4B2
:10060A0040E2F6C002C0E23039F450E013E0203391
:10061A0011F40068EDC004C0E33011F00C94FD033E
:10062A00203310F02A3308F007C0AAE05A9F502D51
:10063A00E22FE0535E0FDCC0E22FE33649F40E945A
:10064A005504E889F989A481AA930E945B04CFC062
:10065A00E33741F40E9455040E9461040E94A401F8
:10066A001E2F0AC0E03761F40E9455040E946104FB
:10067A000E94B0011E2F086002600F7730E035C07B
:10068A00E43611F0E93611F4046002C0E53731F4BA
:10069A00E4E5F0E0EE83FF8315E00DC0E83511F4E0
:1006AA00086004C0E83711F00C94FC03EEE5F0E0B2
:1006BA00EE83FF8314E002FF14C00E9455040E94D7
:1006CA006B04AB85AA233AF4EA85FB850E94880469
:1006DA00EA87FB874DE2403011F01F5F01C00B7FB4
:1006EA0004C00E9455040E946B0400FD11C0151736
:1006FA0078F407FF08C002FF04C00B7F242F1150B3
:10070A0001C020E301C020E20E944E045150EFCF05
:10071A00312F01FF17C03030A1F003FF06C0EE8170
:10072A00FF812591EE83FF8305C0AE81BF812D91A4
:10073A00AE83BF830E944E04503009F051503150AD
:10074A00EACF4BC020E3EE81FF810E94B604E8871E
:10075A00F987EE81FF813296EE83FF83E885F9857A
:10076A00AA85BB85AE17BF0750F02F5FA885B9854C
:10077A00EA85FB85EA1BFB0BEA87FB87EFCF2A3367
:10078A0028F003FF02C0295F01C0295D04FD1AC0D9
:10079A00213320F4A885B985119709F409C05317A4
:1007AA0010F000FF01C013C020E207FF0BC020E3D6
:1007BA00006102FF07C00B7F4A930E945B0450301E
:1007CA0009F051500E944E04503009F051503150F6
:1007DA00A885B985129708F0B5CF00FF08C0503038
:1007EA0031F05150E0E2EA930E945B04F8CF10E046
:1007FA00DDCEAC85BD850E94B2040E94C604649613
:10080A000895FF92F82E26970E94C1040E9473044D
:10081A00309719F4EFEFFFEF23C0DE0116960E941E
:10082A0084048D010E947304EE83FF83E0E0E8876D
:10083A00E987DE011A960E9484040E94B204FA93A0
:10084A00EA931A930A93EFE8F2E0FA93EA93DE0145
:10085A001A96A0DE9F01AE81BF81E0E0EC93F90118
:10086A000E94C8042A96FF9008950E94BA0484E060
:10087A000E94060428960895FE01FA93EA930895C1
:10088A000E944B02A0E30C9450020E94DC010C94DB
:10089A004B022A93AD85BE85EF85F889099508959F
:1008AA00E889F9893497E88BF98B0895AD85BE8577
:1008BA00EF85F88909950895A889B98914960E943F
:1008CA00B204EE83FF83AE81BF810895A889B989F6
:1008DA0014960E94B204EA87FB870895DE011C96EB
:1008EA000E9484040E94B2040895109639F080EDA3
:1008FA0097E00197F1F7A8951197C9F70895002491
:10090A00AF0DB01D0895F195E195F04008956F2F50
:10091A00660F660B762F08950024112490E1AA0F22
:10092A00BB1F001C111C0E1A1F0A18F40E0E1F1EE4
:10093A0001C0A1609A9599F7FD01D0010895E89444
:10094A00B7FF04C0A095B09511966894F7FDDBDF58
:10095A00E3DFFD010EF4D7DF0895ED91FC911197C5
:10096A0008950590F491E02D08957A936A93FA9385
:10097A00EA9308955A934A933A932A931A930A93B5
:10098A0008955D814C813B812A81198108810895EE
:00000001FF
