:040000002EC0FECF41
:10000400FDCFFCCFFBCFFACFF9CFF8CFF7CFF6CFA8
:10001400F5CFF4CFF3CFF2CFF1CFF0CFEFCFEECFD8
:10002400EDCF1027E80364000A000100001000016E
:100034001000010050554C54412076302E310043BD
:100044003A2564202D202564000080C00B00A00008
:1000540038000200B4004E000000F894EE27ECBB18
:10006400E5BFF8E1A4B7A77FA4BFF1BDE1BD8DE072
:10007400A2E0ED938A95E9F780E8A0E6ED938A95EE
:10008400E9F7E0E5F0E085919591009761F0A5919D
:10009400B59105901590BF01F00105900D9201975F
:1000A400E1F7FB01F0CFE0E0E3BBE4BBE5BBEFED40
:1000B400EDBFC0EA00C0609700E010E0E0E8E6BDF4
:1000C400E0E0E6BDEBBBEABBE8BBE7BBE2BBE1BB00
:1000D400E0BFE3BFE2BFE6BFECBFEFBDEEBDEDBDE9
:1000E400ECBDE5BDE4BDEBBDEABDE9BDE8BDEBBFDC
:1000F400E5BFE9BFEDB9EBB9E8E1EAB9E6E0E3B998
:10010400E0E0E2B9E7E6E9B9E0E8E8B9A2D2E0E183
:10011400EA93C4D070D26FD277D0E0EAEA93A2D047
:100124000F5F1F4FE7B3E73FB9F4EC2FEA93E3E423
:10013400F0E064D2F801A9D2C0D2E7B3FF27662762
:100144007727BBD288E01BD22B9655D254D25CD0F1
:10015400EC2FEA9387D062D00031EEE01E0714F052
:1001640000E010E080E498E30197F1F7A0E08499BF
:10017400A1E0A03051F0A0E08599A1E0A03029F0E1
:10018400A0E08699A1E0A03011F4E1E301C0E7EF1B
:10019400E7BBC6CFFFCFFFE0FA95F1F70895A7B309
:1001A400AF70A7BBC19AC098F6DFC29AF4DFA6B3BA
:1001B400C298F1DFC29AEFDFC298A7FDF5CF089588
:1001C400A07FAB2BA8BBC29AE6DFC298E4DF0895F8
:1001D400C198A7B3A76FA7BBB8B3BF70A881F0DF5E
:1001E400A881A295EDDFC19A83C0C29AD4DFE6B399
:1001F400C298D1DFE07F0895CEDFF7DFAE2FF5DFC1
:10020400C198E295EA2B0895CADFE881EC54E081B5
:10021400A981EA0FF6D1398028802FC0C0DFE2E03F
:10022400F0D1BDDFECE0EDD1BADFE1E0EAD1E0E00E
:100234002E2E3E2E0895EF93FF93A8816894AA3042
:1002440019F0E894351428F02394D5D12A92DCDFF0
:1002540036F03394A4DFC09AA881AA93B9DFFF9142
:10026400EF9146C01A93A981ED91A9831E2FE03026
:1002740019F01A93E0DFF7CF188122960895AA2780
:10028400BB271197F1F70895C198A7B3A76FA7BB30
:10029400B8B3BF70A88194DFC19A2AC0C298C0982D
:1002A4005880E881E058E093B600E881E054E09398
:1002B400B700A9D1A8D1A7D1E2DFE0E2EA93E4DF55
:1002C400DEDFE8E29ED1DBDFE4E09BD1D8DFE5E8C6
:1002D40098D1D5DFA7B3AF70A7BBC19A8DDFE53046
:1002E40011F0E0E005C05BDFE6E08BD197DFE1E0F1
:1002F400219608951A93A981AE5FEC91E030F9F04C
:10030400A981AD5FEC911E2FE03039F01230B0F0CE
:100314001150E12FA981AD5FEC93A981AE5FEC91FF
:10032400EF5FEC93E150AA81A083A981BED1FF23A2
:100334002AF0ED91FD913196FE93EE9305C0A981CB
:10034400EFEFFFEFED93FC93188123960895269722
:10035400B9D110E0AC85E0E0F0E0ED93FC93E889DE
:10036400F9893196E88BF98B3197E4912E2FE0309F
:1003740009F400C1E12FE03031F4253211F411E029
:1003840001C045D1F6C0E130A1F4253211F43FD1CA
:10039400EFC012E040E000E02D3211F401E0E9C0CA
:1003A4002B3211F44BE2E5C0203211F440E2E1C0FB
:1003B40002C0E23039F450E013E0203311F4006855
:1003C400D8C003C0E33009F0D4C0203310F02A337E
:1003D40008F008C0E52FAAE05DD15E2FE22FE053BC
:1003E4005E0FC7C0E22FE33631F418D1EF85A48144
:1003F400AA9318D1BDC0E33741F410D119D1EC91BF
:10040400EE83EA93E4D01E2F0BC0E03769F406D1E3
:100414000FD14BD110D112D1F1D0E2D01E2F0860F0
:1004240002600F7730E030C0E43611F0E93611F4A1
:10043400046002C0E53729F4E6E2F0E0FCD015E000
:100444000BC0E83511F4086003C0E83709F090C028
:10045400E0E3F0E0F0D014E002FF12C0DFD0E8D017
:1004640024D1EFD0AB85AA232AF4EA85FB8509D1F0
:10047400E8D04DE2403011F01F5F01C00B7F04C093
:10048400CDD0D6D012D1DDD000FD10C0151770F438
:1004940007FF08C002FF04C00B7F242F115001C0C6
:1004A40020E301C020E2B3D05150F0CF312F01FF3F
:1004B40012C0303079F003FF04C0C0D02591BBD006
:1004C40003C0AE812D91AE83A2D0503009F05150BB
:1004D4003150EFCF44C020E3B1D0EBD0E887F987A7
:1004E400ADD03296A8D0E885F985AA85BB85AE172C
:1004F400BF0748F02F5FA885B985EA85FB85EA1B0D
:10050400FB0B9FD0F0CF2A3328F003FF02C0295FF2
:1005140001C0295D04FD19C0213320F4A885B985E3
:10052400119709F409C0531710F000FF01C011C05E
:1005340020E207FF0AC020E3006102FF06C00B7F30
:100544004A9370D0503009F0515061D0503009F0C6
:1005540051503150A885B985129708F0BCCF00FFDF
:1005640007C0503029F05150E0E2EA935BD0F9CF54
:1005740010E0F5CEAC8599D0ACD062960895FF9288
:10058400F82E2497A1D060D0E03019F4EFEFFFEFFC
:100594001AC0AC2FAC5FAF0D1A2F56D0EE83E0E03B
:1005A400EF83AC2FA85FAF0D80D028D01A93ECE76F
:1005B400F1E024D0EC2FE75FEA93C9DE9F01AE811E
:1005C400E0E0EC93F90187D02896FF900895BB27CB
:1005D400A991EE276D91662311F0E395FBCF089561
:1005E400AA27BB27E991F9910590002011F01196F3
:1005F400FBCFFD010895E0E0EA930895FA93EA93AE
:100604000895EA93E5CD3BDEE0E3EA933DCE2A93F9
:10061400ED85EA93EF85F88909950895EF85E4500F
:10062400EF870895ED85EA93EF85F8890995089594
:10063400AF85AC5F0895EE83FF830895EE81FF815B
:100644000895EA87FB870895AC2FA65FAF0DEC9160
:100654000895EE27D898D09A80E897E00197F1F7AB
:10066400D0988BE48A95F1F7C89B089580E391E0D4
:100674000197F1F7C89BE39588E196E00197F1F7BC
:100684000895F195E195F04008956F2F660F660B7C
:10069400762F08950A2EAA1BB9E003C008F4A00D12
:1006A400A695E795BA95D1F70895ED91FC91AA9591
:1006B40008950590F491E02D08957A936A93FA933E
:1006C400EA9308955A934A933A932A931A930A936E
:1006D40008955D814C813B812A81198108810895A7
:00000001FF
