:020000000C945E
:100002007C000C9400000C9400000C9400000C94F2
:1000120000000C9400000C9400000C9400000C945E
:1000220000000C9400000C9400000C9400000C944E
:1000320000000C9400000C9400000C9400000C943E
:1000420000000C9400000C9400000C94AE000C9480
:1000520000000C9400000C9400000C94CD000C9451
:1000620000000C9400000C9400000C94000064004A
:10007200C80090012003F8FFFCFFFEFFFFFF000015
:10008200466F756E642025752064657669636573B5
:100092000A2E004465762025752E20002530325820
:1000A20020004E6F7420466F756E646564002049AF
:1000B2006E697420657272202575202E00542564A5
:1000C2003A252E326620EF432E200050726573735C
:1000D2006564202045002D4E414E000001002D4E4A
:1000E200414E00494E46000001000200800001001E
:1000F2006A02DE000000F894EE27ECBBF1E0FBBFE1
:10010200EBBFE5BFE6BFF8E1F1BDE1BD8DE0A2E0E6
:10011200BB27ED938A95E9F780E094E0A0E0B1E097
:10012200ED930197E9F7EAEEF0E08591959100975A
:1001320061F0A591B59105901590BF01F001059070
:100142000D920197E1F7FB01F0CFEFEFEDBFE4E095
:10015200EEBFC0E0D2E00C94FF00EA93FA93EFB74F
:10016200EA931A930A931BB10CB1E12FEC7189F453
:10017200E62D6394F0E0EC5DFD4F0083E4E1E615CB
:1001820009F466248394E4E1E81519F48824689458
:1001920020F80991199112C0EA93FA93EFB7EA9302
:1001A200DD2061F0DA94EA2DA394F0E0E85CFD4FE3
:1001B200E081ECB9E4E1EA1509F4AA24E991EFBF80
:1001C200F991E9911895AA93E4E1ED15E9F3F89410
:1001D200DD2011F45D990DC0EB2DB394F0E0E85CE5
:1001E200FD4FA881A083E4E1EB1509F4BB24D3946D
:1001F20002C0E881ECB9789421960895CFD0A8E89E
:10020200B3E10E9498080E94A208E0EFEA93A9E0F5
:10021200B2E00E94F2085E2E7894A898A998AA9853
:10022200552099F10E945B07E2E8F0E0FA93EA9325
:10023200E52D0E9460074424451430F50E945B07B7
:10024200E5E9F0E00E946D0784E020D428960E9440
:1002520077070E947B077724E8E07E1688F40E94E5
:100262005B07EEE9F0E0FA93EA930E947F07DF0171
:10027200EE27A70DBE1FEC910E9460077394ECCF8E
:100282000E947B074394D8CF06C00E945B07E4EA32
:10029200F0E00E94860744244514C8F40E947F07B8
:1002A200FA93EA93ECE0EA93E7E2EA93A3E0B6D4A6
:1002B200E03049F40E945B07E0EBF0E0FA93EA9346
:1002C200E42D0E9460070E948D074394E5CFE1E090
:1002D2007E2E44244514A8F40E945B07EFEBF0E065
:1002E2000E946D070E947F07DF0150D40E94B00B6D
:1002F20088E0CCD32C960E9477070E947B07439418
:10030200E9CFC098A0912402A53469F40E945B074A
:10031200EDECF0E00E948607E3E4E0932402C09A49
:10032200A8EC0E949107A89AA998AA980E948D0702
:10033200A898A99AAA980E948D07A898A998AA9AFB
:100342000E948D07A898A998AA980E948D07A89A3A
:10035200A99AAA980E948D07A89AA998AA9A0E9477
:100362008D07A89AA99AAA9A0E948D07C09A0E94FC
:100372008D07ADCF0000FECFBA93AA93A881B981B1
:10038200EC91E03049F0ED91A883B983AE2F1BDFE9
:10039200A1E00E949107F2CF22960895E0E8E0934F
:1003A2006100E0E0E0936100EBBBEFEFEABBE8BB8A
:1003B200E1E0E7BBEFEFE5BBE4BBEFEEE2BBE2E17E
:1003C200E1BBE0E0E7B9E6B9E3BFE2BFE1BFEFBD01
:1003D200EEBDEDBDECBDE5BDE4BDEBBDEABDE9BDE5
:1003E200E8BDE6BDE7BDE3BDE2BDE0938B00E0936F
:1003F2008A00E0938900E0938800E0938100E09313
:100402008000E0938700E0938600E0938500E0930C
:100412008400E5BFE6BFE9BFE0937D00EBB9E8EDFC
:10042200EAB9E6E8E0BDE0E0E0BDE3E3E9B9E0E037
:10043200E1B9E0E8E8B9E0E0EDB90895BA93AA932A
:100442001A930A93AA81BB8112960E94900B30974D
:1004520029F1AA81BB8114960E94900B8F013097DB
:1004620061F00230E0E01E07C0F0F80131978F0121
:10047200AA81BB811496ED93FC93AA81BB8112964B
:100482000E9494073197AC81A083AA81BB810E940C
:10049200900BFF2312F00E94940706C0AA81BB8131
:1004A200EFEFFFEFED93FC9319810881F8C30E94EF
:1004B2009A07E0E8EA83EFE3EB830E94CD0BEE8537
:1004C200FF85EF3FAFEFFA0749F4E885F985FA9324
:1004D200EA93A8EDB0E00E945206B8C0EF3FAFE742
:1004E200FA0749F4E885F985FA93EA93A9EDB0E0B1
:1004F2000E945206ABC0AB85A73010F0E6E0EB8756
:100502001B85E12F1150E03019F00E94A107F9CFAD
:10051200EC85FD856E857F850E94C70B21F430E056
:100522000E94A1072EC03B850E94B00709F010F47B
:100532000C94A6020E94A1070E94B00728F00E9414
:10054200BB070E94C007F8CF0DC00E94B00740F45D
:100552000E94BB070E94CC070E94D3073150F5CFFF
:100562000E94A107EC85FD856E857F850E94D807D4
:100572000E94D3070E94B00720F00E94BB070E948E
:10058200C00710E0EB85E117A8F1AC81BD818E8137
:100592009F810E94DF070E94D807DF01CB010E94E2
:1005A200A906EC83FD836E837F830E94BB070E94B2
:1005B200BB0A0E94AA090E2F0E94E6070E94ED07BD
:1005C200FF27662777270E94E309AC81BD818E81D0
:1005D2009F810E946D0A0E94BB070E94F2070E943F
:1005E200D307E12F1F5FE03069F60E94E607EEE2D3
:1005F200EC93C8CF0E94F7073197AA85A0833030C9
:100602002CF43195A885B985EDE203C0A885B9859A
:10061200EBE2EC930E94F7070E94F7073197BF01C4
:10062200A32FEAE00E944A0BE05DDB01EC930E94FB
:10063200F7073197BF01A32FEAE00E94740BE05D38
:10064200DB01EC93A885B985E0E0EC930E94D40B22
:1006520060960895BA93AA93EF9761970E94CB0B85
:1006620010E0FE01E85AFF4F0190F081E02DE8878B
:10067200F987FE01EA5AFF4F0190F081E02DEE83E7
:10068200FF83AE81BF81E0E0F0E0ED93FC93DE01F9
:10069200A45ABF4F0E9494073197E4912E2FE03065
:1006A20011F40C943E05E12FE03039F4253211F4B7
:1006B20011E002C00E94FD07DFC1E130C1F4253222
:1006C20019F40E94FD07D7C112E0E0E0ED8B00E0D3
:1006D2002D3211F401E0D0C12B3219F4EBE2ED8B93
:1006E200CBC1203219F4E0E2ED8BC6C102C0E23088
:1006F20039F450E013E0203311F40068BDC102C0A8
:10070200E33091F4203310F02A3308F007C0AAE056
:100712005A9F502DE22FE0535E0FAEC140E02E32C1
:1007220011F414E0A9C10FC0E43099F4203310F0A1
:100732002A3308F008C00062AAE04A9F402DE22F47
:10074200E0534E0F99C12C3619F4026015E094C1A2
:1007520004C0E53011F00C943D05E22FE33659F464
:100762000E9404080E940B080E940408A481AA9314
:100772000E94120880C1E53411F0E53609F404C084
:10078200E63611F00C940B04FE017696EE87FF8795
:100792000E9418080E94940B0E941F080E942408BD
:1007A200AD85AA2322F0AD89AB3249F017C00E9471
:1007B20026080E9477090E941F08EDE2ED8B07FFD1
:1007C20005C0ED89EA930E94120808C0EE85FF85F4
:1007D2003196EE87FF873197AD89A08305FF46E00A
:1007E200263651F40E9426080E94B00B4A93AB8928
:1007F200BC890E94C00609C00E9426080E94B00B54
:100802004A932A93AC89BD8952DEFE0176960E94F4
:100812002B081EC0E33739F40E9424080E943308D3
:100822000E942B080EC0E037C1F40E9424080E94E7
:100832003308EE87FF87AE85BF850E946B061E2FA9
:1008420008600F77403011F0411708F001C0142FF3
:1008520040E0E0E0EC8B30E06EC0E43611F0E936C7
:1008620011F4046002C0E537A1F4EAE0EC8B01FF69
:1008720008C0E0E0FAEC6AE97BE30E9438081AE07B
:1008820023C0E0E1F7E260E070E00E94380815E082
:100892001BC0E83511F4086004C0E83711F00C946D
:1008A2003C05E0E1EC8B01FF08C0E0E0F0E060E035
:1008B20070E10E94380818E007C0E0E0F0E160E073
:1008C20070E00E94380814E0403011F00F7701C048
:1008D20041E001FF08C00E9424080E9418081496F3
:1008E2000E94940B0FC002FF07C00E9424080E94BE
:1008F20033080E94320B06C00E9424080E9433086B
:1009020066277727EA87FB876C877D8702FF12C0FD
:10091200AD85AA2342F40E9426080E94240B0E945D
:100922001F08EDE2ED8BED89E03019F01F5F4F5F9C
:1009320001C00B7F342F00FD14C0151710F43517BA
:1009420008F00FC007FF08C002FF04C00B7F2D890B
:10095200115001C020E301C020E20E94FD07515066
:10096200ECCF141790F4006102FF06C00E943D080C
:1009720009F0515011504150E0E3EA930E941208ED
:10098200503009F051504150ECCF312FEC89E0301A
:10099200B9F43030A1F003FF06C0EE85FF85259142
:1009A200EE87FF8705C0AE85BF852D91AE87BF87D5
:1009B2000E94FD07503009F051503150EACF51C02A
:1009C2000E944F080E944F0B2E2F2A3030F003FF57
:1009D20002C0295C01C0295A01C0205D04FD21C06A
:1009E200213360F4A889B9898A899B89A130E0E022
:1009F200BE07E0E08E07E0E09E0709F40BC0431754
:100A020040F4531710F000FF01C010C020E207FFAE
:100A120008C020E3006102FF04C00E943D0809F003
:100A220051500E94FD07503009F0515031500E9440
:100A32004F080E94800B0E941F08EC89A889B9897F
:100A42008A899B89FF27662777270E944F0B0E947E
:100A52003808E889F9896A897B890E94C70B09F0FD
:100A6200AFCF00FF08C0503031F05150E0E2EA93BE
:100A72000E941208F8CF10E00ACEAE81BF810E9418
:100A8200900B0E94D20BEF966F960895FF92F82E6C
:100A920026970E94CD0B0E945808309719F4EFEF69
:100AA200FFEF23C0DE0116960E94200B8D010E94EB
:100AB2005808EE83FF83E0E0E887E987DE011A96B3
:100AC2000E94200B0E94900BFA93EA931A930A93C6
:100AD200EFE1F2E0FA93EA93DE011A96BBDD9F01A1
:100AE200AE81BF81E0E0EC93F9010E94D40B2A961B
:100AF200FF900895BA93AA931A930E94A208E03035
:100B020011F4E0E088C0E981FA81309781F0A5E52F
:100B12000E94E80810E0A981BA81ED91A983BA8305
:100B2200AE2F0E94E8081F5F1830A8F303C0ACEC98
:100B32000E94E808E1E06FC0BA93AA930E94CD0B2D
:100B4200AC81BD81D7DFE03011F4E0E01BC0AEEB39
:100B52000E94E80810E020E032E03F932F932F5FDD
:100B62003F4F0E94E308AF91BF91EC931F5F193092
:100B7200A0F3E0E0F2E0FA93EA93A9E00E946109AF
:100B82000E94370B0E94D40B26960895BA93AA931B
:100B92001A93A981BA81D0DFE03019F40E945F086C
:100BA2003AC0E0910402E295EF70E695E3701E2FE1
:100BB200A981BA819FDFE03019F40E945F082BC03F
:100BC200A4E40E94E808E12FA0E7B0E00E946408D4
:100BD2000E949E0B0E949808A981BA81ADDFE03085
:100BE20019F40E945F0817C00E94A208E12FA8E72B
:100BF200B0E00E9464080E949A0BA0910002B0919A
:100C02000102EA23FB230E946A08A0E0B0E080E828
:100C12009DE30E946D0A188123960895AA93AB81E1
:100C2200BC8168DFE03011F4E0E039C0E881E29590
:100C3200E07FEE0FEF61E883AEE40E94E808A9814D
:100C42000E94E808AA810E94E808A8810E94E80898
:100C5200AB81BC8171DFE03011F4E0E020C0A091F3
:100C62000302EA81EA1751F4A0910202E981EA172C
:100C720029F4A0910402E881EA1711F0E0E00FC024
:100C8200AB81BC8137DFE03011F4E0E008C0A8E4BA
:100C92000E94E808AFE00E9491070E94A2082596F0
:100CA2000895BA93AA93E991F991A991B991CD01C5
:100CB20005900D920020E1F7FC010895BA93AA93E2
:100CC200A991B991EE27FF276D91662311F0319614
:100CD200FBCF0895BA93AA93AA27BB27E991F9916A
:100CE2000590002011F01196FBCFFD0108950E949E
:100CF200B50B7B816A81F981E88177FB770F67FD0C
:100D02007160972F9E5781F078F0983190F4AA275E
:100D1200BB27882708948795B795A7959A95D1F709
:100D2200EA23FB23682305C0E8947727EE27FF27F1
:100D320066276F77769508F4606877F9A991B9917B
:100D420089919991EA17FB076807790797FB08953C
:100D52000E94B50B0E94A60B0E9478060E94AB0B64
:100D620019F40E94A10B09C0E6F70E94A10BA0E0B2
:100D7200B0E080E89FE30E94160A24960895D9D035
:100D8200E0E0EA83EFE3EB831A930A93EB85FC85B9
:100D9200EF3FAFEFFA0731F4A1D1A0EEB0E00E942D
:100DA200520684C0EF3FAFE7FA0731F497D1A1EEC4
:100DB200B0E00E9452067AC0AC85AA2352F4E985BB
:100DC200FA856B857C850E9477098DD191D1EDE200
:100DD200EC93A885A73010F0E6E0E8871885E12FAC
:100DE2001150E03021F08BD1E9D08ED1F8CF91D1E2
:100DF2000E941D0A78D110E0E0E0F0E060E87FE3B5
:100E020083D187D10E94000B68F079D1C4D07CD104
:100E12001F5F173230F062D1A5EEB0E00E94520699
:100E220045C0EFCF103021F463D1E0E3EC931DC055
:100E3200E12F1150E030C9F062D1C0D0B8D0DF014B
:100E4200CB010E94A90660D164D10E94BB0A0E9414
:100E5200AA090E2F4DD1C0D0F0E051D13AD10E9453
:100E62006D0A60D1BED03FD1E3CFE885E030D1F04A
:100E72003FD1EEE2EC93E885E150E887EF5F91F035
:100E820051D189D030D1E985FA856B857C850E9464
:100E9200AA090E2F2DD1A0D0F0E044D11AD1A1D0B1
:100EA20022D1E9CFAE81BF81E0E0EC9319810881C4
:100EB2002D960895ECE4F2E0FA93EA930895FF2761
:100EC200662777270E94B00B84E00E944705289688
:100ED200ACE4B2E00C94BD01FA93EA93E42DF0E0A5
:100EE20031960E94320B0E94B00B0895ACE4B2E03E
:100EF2000C94BD01AAE0B0E00C949808E42DA9E09E
:100F0200EA9FF001E75FFD4F0895FA93EA9380E0CC
:100F12000E9447052496EACFA4E6B0E00C94980814
:100F2200B0E00C949808ED91FD913196FE93EE930A
:100F32000895BA93AA932497E0E0E883E983089599
:100F4200AC81BD818E819F81E0E0F0E060E271E4DE
:100F52000E946D0AEC83FD836E837F830895EC818A
:100F6200FD816E817F81AC85BD858E859F850E94C6
:100F7200000B0895AC85BD858E859F850895EDECA7
:100F8200FCEC6CEC7DE30E946D0AEC87FD876E87BA
:100F92007F873F5F0895E0E0F0E060E271E40E9445
:100FA2006D0A0895EC87FD876E877F870895A0E01C
:100FB200B0E080E09FE30E941D0A0895EDECFCEC96
:100FC2006CEC7DE30E946D0A0895A885B98511969F
:100FD200A887B98711970895E02FE05DEC93E02F81
:100FE20008950E94BA0B0E94160A0895E885F985B1
:100FF2003196E887F98708952A93AF81B885E98504
:10100200FA8509950895FE01E65AFF4F0190F08195
:10101200E02D08953497DE01A65ABF4FED93FC935D
:101022000895AF81B885E985FA8509950895DE01AD
:10103200A65ABF4F0D90BC91A02D0895EA87FB8759
:101042006C877D870895DFDFE5CFEA85FB856C85B8
:101052007D850895EE87FF87AE85BF850E945F0676
:101062001E2F0895E4DF14960E94900B0895E88BDA
:10107200F98B6A8B7B8B08950B7FED89EA93DE01F6
:10108200A95ABF4F0D90BC91A02DFE01E75AFF4F08
:101092000190F081E02D099550300895E889F98991
:1010A2006A897B89AA85BB858C859D850895DE0129
:1010B2001C960E94200B0E94900B0895E0E0FCE336
:1010C2006CE176EC0895F0E0EE0FFF1FEA0FFB1FD4
:1010D20008950E94320B0E94E3090895EE81FF8178
:1010E200FA93EA930895E987FA876B877C870895D4
:1010F200AE81BF811196AE83BF8311970895AA81F5
:10110200BB818C819D810895EA83FB836C837D83FF
:101112000895EA81FB816C817D81A985BA858B85E1
:101122009C850895A985BA858B859C85089510961E
:1011320039F080ED97E00197F1F7A8951197C9F77B
:101142000895EE27D898D09A80EC93E00197F1F7B2
:10115200D09885E28A95F1F7C89B08958BEC8A9521
:10116200F1F7C89BE1E08CE093E00197F1F7089575
:10117200D09A85E08A95F1F7D0988DE18A95F1F7BA
:101182008894C8990894E79585ED8A95F1F70895B2
:10119200E894D09A85E08A95F1F770FDD09883E2C1
:1011A2008A95F1F7C89903C070FF03C0089570FFD4
:1011B200089588EC8A95F1F7D0988DE08A95F1F739
:1011C2006894089568E0D4DF6A95E9F708957A2F64
:1011D20068E0EE27DDDF26F477956A95D9F7E39587
:1011E20008954F935F9311244427012C1124A9DF02
:1011F200EE2301F1AF93A881EADFAF9151E05015E0
:1012020098F4B6DFE7FD08C0B3DFE7FD06C03FD0C4
:10121200892319F4152E01C0ABDF39D0892370E080
:1012220009F071E0B5DF1EC0A3DFE7FF0BC0A0DF4E
:10123200E7FF05C0E42F5F914F91219608956894CE
:1012420037D0EFCF95DFE7FF01C003C0501531F073
:10125200152EE8942DD077279BDF04C0689428D000
:1012620071E096DF5395513454F282DFEE1FEE1F88
:10127200E1701896EC93189743951120D9F259E032
:10128200EC911996EC9318975A95D1F7AECFE52FBA
:10129200EA956E2FE695E695E695FF27EA0FFB1F86
:1012A200808191E0677019F0990F6A95FCCF0895DB
:1012B200EEDF1EF09095892301C0892B808308956B
:1012C200EE27AA2389F08A2F68E1A881B98198E0E4
:1012D200FD917F2F7E27779508F4E627E795F6950F
:1012E2009A95B9F78A9599F72296089530976040B2
:1012F200704009F070580895552342F4503811F4A3
:10130200E0FF04C03196691F791F6BF050E8572740
:1013120011F45F93CFC05F3F31F0660F000C579519
:101322006795752F08955F9300200AF0CFC0C8C05B
:1013320050E8192E1522880F991F9527550F87956A
:1013420050E8072E0522660F771F7527550F679500
:101352000895689401C0E8945F93F2DF703818F042
:101362007F3F08F4A7C056E1571BAAF451955830A5
:101372000EF4593030F0EFEFFFEF6FEF7FE777F9C0
:101382001AC077275523B9F0EE0FFF1F661F771F8C
:101392005A95D1F710C07727583028F0EF2FF62F43
:1013A200672F5850F9CF552331F076956795F79509
:1013B200E7955A95D1F700200AF445D15F91089537
:1013C200689401C0E894309760407040B1F0002406
:1013D20026F0772312F4009436D1172E7EE11120E5
:1013E20032F07A95EE0FFF1F661F111CF9CFEF2F17
:1013F200F62F612D5F938ADF5F9108954F93AF01BE
:10140200FD01DA01AB01BC01CA01402D012C142EF1
:101412004F910895EA0FFB1F681F0895E095F0951C
:101422006095EF5FFF4F6F4F08955F9381DF9038B4
:1014320071F150E8152604C05F937ADF903839F1D4
:10144200703821F1572F591B2BF112F4D7DFFACF45
:10145200583118F0AA27BB278827583028F0AB2F1D
:10146200B82F88275850F9CF552329F08695B7957C
:10147200A7955A95D9F7502D512572F0CBDF38F444
:101482006795F795E795739513F420C0B7DF3EDFB4
:101492005F910895D8F7FBCFEA1BFB0B680B51F065
:1014A20010F40094BBDF662392F3EE0FFF1F661F5A
:1014B2007A95CBF7EE27FF27662777275F91089566
:1014C200EFEFFFEF6FE77FEF5F910895EFEFFFEF31
:1014D2006FE77FE75F9108955F932ADF703851F3DA
:1014E200903841F301240894791F23F41CF300205F
:1014F2003AF3ECCF0F921F932F933F934F93112701
:1015020022279927689FA0018F9F302D410D591FD7
:101512006B9F300D411D591F8E9F27D0BF9F25D035
:101522006A9F23D0BE9F1DD0AF9F1BD0AE9F110DCF
:10153200291F391F491F591FE32FF42F652F522FDF
:101542004F913F912F911F910F9066232AF0550FD3
:10155200EE1FFF1F661F02C073954BF2CDDE5F9137
:101562000895100D211D391F02C0200D311D491F84
:10157200591F08955F93DCDE703821F411200AF4BC
:101582009FCFA4CF903809F495CF01240894970BEC
:101592001BF4D4F30020F3CF792F1F932F933F93A3
:1015A2004F9311241127222733274427552790E2EE
:1015B200AE17BF078607410730F0AE1BBF0B860B85
:1015C200410B089401C08894551F221F331F111C20
:1015D200AA1FBB1F881F441F9A9551F7F901612D5D
:1015E2004F913F912F911F91662332F0550FEE1FBD
:1015F200FF1F661F7A9543F27FDE5F91089599235C
:101602009AF0772342F0971748F029F4AE17BF07F4
:10161200860720F031F0989488940895989408945D
:1016220008951894889408957723C2F7971798F32A
:10163200A9F7EA17FB07680788F399F3ECCF0024B0
:10164200AF0DB01D0895F09560957095E195FF4F2F
:101652006F4F7F4F0895FE2FFF0FFF0B6F2F7F2FCE
:1016620008956F2F660F660B762F0895EE23E1E043
:1016720009F0EE270895002498E0AA0F001C0E1A24
:1016820010F40E0E01C0A1609A95B9F7EA2FA02DB1
:10169200089539D0F0DF0EF4E19508953F934F930A
:1016A2005F93002411244427552730E2AA0FBB1F61
:1016B200881F991F001C111C441F551F0E1A1F0A58
:1016C200460B570B28F40E0E1F1E461F571F01C054
:1016D200A1603A9559F7FD01BC01D001CA015F91A1
:1016E2004F913F910895E894A7FF02C0A195689495
:1016F200E7FDE195C0DFEA2F0EF4E1950895CEDF14
:10170200FD01BC010895E894E7FF02C0E1956894E9
:10171200A7FF04C0A19500F8039400FA0895ED9183
:10172200FC9111970895ED91FD916D917C91139724
:1017320008950590F491E02D0895A591B49108952E
:10174200E881F9816A817B810895A881B9818A81C2
:101752009B810895E883F9836A837B8308957A9352
:101762006A93FA93EA9308959A938A93BA93AA93FF
:101772000895182E862F612D192E972F712D1B2E4D
:10178200BF2FF12D1A2EAE2FE12D08953097604014
:10179200704008955A934A933A932A931A930A935C
:1017A20008955D814C813B812A81198108810895C8
:00000001FF
