:1000000010C017C016C015C014C013C012C011C054
:1000100010C00FC00EC00DC00CC00BC00AC009C07C
:1000200008C011241FBECFE5D2E0DEBFCDBF02D095
:1000300028C0E6CF85EC84BBA898AA9AAE9AAF9A5E
:1000400084EC99E028EC30E0F9013197F1F7019761
:10005000D9F7999904C0A89AAA9AAE9AFACF9B990F
:1000600003C0A898AA98F5CF9C9904C0A898AA9A0A
:10007000AF98EFCF9D99EDCFA89AAA98AE98AF9A76
:06008000E8CFF894FFCF69
:00000001FF
