:0E0000000C9436000C9400000C9400000C943C
:10000E0000000C9400000C9400000C9400000C9462
:10001E0000000C9400000C9400000C9400000C9452
:10002E0000000C9400000C9400000C9400000C9442
:10003E0000000C9400000C9400000C9400000C9432
:10004E0000000C9400005961206461730A0080C0A6
:10005E00080060025400020068025C000000F89480
:10006E00EE27ECBBF1E0FBBFEBBFE5BFF8E1F1BD66
:10007E00E1BD8DE0A2E0BB27ED938A95E9F780E024
:10008E0098E0A0E6ED930197E9F7EEE5F0E08591B3
:10009E009591009761F0A591B59105901590BF01CE
:1000AE00F00105900D920197E1F7FB01F0CFEFE51E
:1000BE00EDBFE8E0EEBFC0E6D2E00C946600E0E0F3
:1000CE00EBBBEABBE8BBE7BBE5BBEFEFE4BBE0E0B5
:1000DE00E2BBE1BBE3BFE2BFECBFEFBDEEBDEDBDEA
:1000EE00ECBDE7BDE6BDEBBDEABDE9BDE8BDE2BDD9
:1000FE00E5BDE4BDE3BDE5BFE4BFE9BFE0E8E8B9B7
:10010E00E0E0E0BFE0E1EA930E943701E0E0EA932D
:10011E00EA930E94D900E0E6F2E0FA93EA930E9495
:10012E001801FFCFFFCFFFE0FA95F1F70895A4B3C2
:10013E00AF70A4BBA99AA898F6DFAA9AF4DFA3B36E
:10014E00AA98F1DFAA9AEFDFAA98A7FDF5CF089536
:10015E00A07FAB2BA5BBAA9A0E949A00AA980E94D8
:10016E009A000895A998A4B3A76FA4BBB5B3BF70A6
:10017E00A881EEDFA881A295EBDFA99A0C9463010A
:10018E00AA9A0E949A00E3B3AA980E949A00E07F6E
:10019E0008950E949A00F4DFAE2FF2DFA998E2953F
:1001AE00EA2B08950E949E00E881F0E0E859FD4F89
:1001BE00E081A981EA0FEA930E94B9005980488034
:1001CE00229608950E949E00E2E0EA930E94B900F2
:1001DE000E949E00ECE0EA930E94B9000E949E00ED
:1001EE00E1E0EA930E94B900E0E04E2E5E2E089503
:1001FE00EF93FF93A8816894AA3019F0E8945714EE
:10020E0030F04394E0E0EA934A92CCDF36F0539418
:10021E008EDFA89AA881AA93A5DFFF91EF910C9487
:10022E0063011A93A981BA81ED91A983BA831E2F16
:10023E00E03019F01A93DCDFF5CF1881239608957C
:10024E00AA27BB271197F1F70895A998A4B3A76F12
:10025E00A4BBB5B3BF70A8810E94AF00A99A2CC0F1
:10026E00AA98A8987880E881E058E0936A02E8811D
:10027E00E054E0936B0222D021D020D0E1DFE0E207
:10028E00EA93E3DFDDDFE8E21ED0E4E01CD0E5E830
:10029E001AD0A4B3AF70A4BBA99A0E94D000E530C7
:1002AE0011F0E0E009C00E949E00E6E0EA930E9491
:1002BE00B9000E94E900E1E0219608950E9427010D
:1002CE00E0E3EA93C2CFEA930E94B9000C942701AF
:00000001FF
