:0200000010C02E
:10000200FECFFDCFFCCFFBCFFACFF9CFF8CFF7CFA2
:10001200F6CFF5CFF4CFF3CFF2CFF1CFF0CFEFCFD2
:10002200F894EE27ECBBF1E0FBBFEBBFE5BFE6BF08
:10003200F8E1F1BDE1BD8DE0A2E0BB27ED938A9529
:10004200E9F780E092E0A0E6ED930197E9F7EFE5AA
:10005200EDBFE2E0EEBFC0EED0E000C0E0E0EBBBFF
:10006200EABBE8BBE7BBE5BBE5ECE4BBE0E0E2BB37
:10007200E1BBE7B9E6B9E3BFE2BFE1BFEFBDEEBD69
:10008200EDBDECBDE5BDE4BDEBBDEABDE9BDE8BD3E
:10009200E5BFE6BFE9BFE0E8E8B9FFCF0000FECF69
:00000001FF
