:100000000C945D000C9400000C9400000C94000013
:100010000C9400000C9400000C9400000C94000060
:100020000C9400000C9400000C9400000C94000050
:100030000C9400000C9400000C9400000C94000040
:100040000C9400000C9400000C9400000C94000030
:100050000C9496000C9400000C94B6000C940000D4
:100060000C9400000C9400000C9400000C94000010
:100070000C9400000C9400000C9400000C94000000
:100080000C9400000C9400000C9400001027E8036E
:1000900064000A00010000100001100001004D3A48
:1000A000257300436F756E746572203A25640000F5
:1000B00080C002001911B0000000F894EE27EFBBD9
:1000C000F1E0F5BFE5BFF8E1A895A4B7A77FA4BF0D
:1000D000F0936000E09360008DE0A2E0BB27ED9319
:1000E0008A95E9F780E090E4A0E0B1E0ED93019714
:1000F000E9F7E2EBF0E085919591009761F0A59129
:10010000B59105901590BF01F00105900D920197F2
:10011000E1F7FB01F0CF8BBFE0E0EEBBEFEFEDBF0F
:10012000E0E4EEBFC0E0D1E10C94CE00EA93FA9394
:10013000EFB7EA931A930A931091C0000091C6009A
:10014000E12FEC7181F4E42DF0E0E75FFE4E0083D7
:100150004394E8E0E41509F444246394E8E0E615E8
:1001600011F46624F09A0991199113C0EA93FA9355
:10017000EFB7EA93772069F07A94E82DF0E0EF5E2C
:10018000FE4EE081E093C6008394E8E0E81509F4B0
:100190008824E991EFBFF991E9911895EF9721979C
:1001A00010E020E030E0E0E0E2B9E1B9EFEFE5B9DE
:1001B000E4B9E0E0E8B9E7B9EBB9E2E0EAB9E0E0D8
:1001C000E4BDE5BDE6BDE7BDE8BDE0938000E0939A
:1001D0008100E0938500E0938400E0938700E09342
:1001E0008600E0938900E0938800E0938B00E09321
:1001F0008A00E093B600E093B000E093B100E09392
:10020000B200E093B300E093B400E0939000E09379
:100210009100E0939500E0939400E0939700E093C1
:100220009600E0939900E0939800E0939B00E093A0
:100230009A00E0936900EDBBE0936800E0936E00E4
:10024000E0936F00E0937000E0937100E093C000D2
:10025000E8EDE093C100E6E0E093C200E0E0E09367
:10026000C500E3E3E093C400E0E8E0BFE0E0E09332
:100270007B00E0E1EA930E9428027894103011F5A7
:10028000FE01B096FA93EA93EEE9F0E0FA93EA936E
:10029000E9E0F1E1662777270E941A042B9A11E022
:1002A000E0E0EA93EA930E94CA01FE01B096FA9355
:1002B000EA930E940902E4E6F0E0FA93EA930E94CE
:1002C0005C0427C02B9810E02F5F3F4FE0E0EA93DB
:1002D000E1E0EA930E94CA01FE01FA93EA93E3EA9D
:1002E000F0E0FA93EA93F9010E9470040E941A0464
:1002F000FE01FA93EA930E940902E6E9F0E0FA931C
:10030000EA930E945C04213DE7E03E0714F020E000
:1003100030E0B4CFFFCFFFE0FA95F1F70895A4B134
:10032000AF70A4B9299A2898F6DF2A9AF4DFA3B10E
:100330002A98F1DF2A9AEFDF2A98A7FDF5CF0895D2
:10034000A07FAB2BA5B92A9A0E948B012A980E9404
:100350008B0108952998A4B1A76FA4B9B5B1BF7056
:10036000A881EEDFA881A295EBDF299A0C945A02AE
:100370002A9A0E948B01E3B12A980E948B01E07FA8
:1003800008950E948B01F4DFAE2FF2DF2998E295E9
:10039000EA2B08950E948F01E881F0E0E75EFE4EAF
:1003A000E081A981EA0FEA930E94AA01A9809880BE
:1003B000229608950E948F01E2E0EA930E94AA012A
:1003C0000E948F01ECE0EA930E94AA010E948F0133
:1003D000E1E0EA930E94AA01E0E09E2EAE2E08958D
:1003E000EF93FF93A8816894AA3019F0E894AC14B5
:1003F00030F09394E0E0EA939A92CCDF36F0A39445
:100400008EDF289AA881AA93A5DFFF91EF910C9423
:100410005A021A93A981BA81ED91A983BA831E2F3A
:10042000E03019F01A93DCDFF5CF18812396089598
:10043000AA27BB271197F1F708952998A4B1A76FB0
:10044000A4B9B5B1BF70A8810E94A001299A32C099
:100450002A982898C880E881E058E0931B11E88129
:10046000E054E0931C110E9421040E9421040E9488
:100470002104DEDFE0E2EA93E0DFDADFE8E20E9477
:100480002704E4E00E942704E5E80E942704A4B1C1
:10049000AF70A4B9299A0E94C101E53011F0E0E0E3
:1004A00009C00E948F01E6E0EA930E94AA010E941F
:1004B000DA01E1E0219608951A930A93AA81BB819B
:1004C00012960E947504309759F1AA81BB81149647
:1004D0000E9475048F01309761F00230E0E01E0742
:1004E000F0F0F80131978F01AA81BB811496ED934A
:1004F000FC93AA81BB811296ED91FD913196FE93FA
:10050000EE933197AC81A083AA81BB810E947504D0
:10051000FF232AF0ED91FD913196FE93EE9306C0F4
:10052000AA81BB81EFEFFFEFED93FC931981088166
:100530002596089526970E94820410E0AC85BD851B
:10054000E0E0F0E0ED93FC93EA89FB893196EA8BD9
:10055000FB8B3197E4912E2FE03011F40C94C703FC
:10056000E12FE03039F4253211F411E002C00E948D
:100570002C040CC1E130A9F4253219F40E942C049A
:1005800004C112E040E000E02D3211F401E0FEC0B1
:100590002B3211F44BE2FAC0203211F440E2F6C0E3
:1005A00002C0E23039F450E013E0203311F4006867
:1005B000EDC004C0E33011F00C94C603203310F0FA
:1005C0002A3308F007C0AAE05A9F502DE22FE053CB
:1005D0005E0FDCC0E22FE33649F40E943504E8895F
:1005E000F989A481AA930E943B04CFC0E33741F468
:1005F0000E9435040E9443040E9405041E2F0AC075
:10060000E03761F40E9435040E9443040E940F0405
:100610001E2F086002600F7730E035C0E43611F01D
:10062000E93611F4046002C0E53731F4ECE8F0E09B
:10063000EE83FF8315E00DC0E83511F4086004C0B7
:10064000E83711F00C94C503E6E9F0E0EE83FF8390
:1006500014E002FF14C00E9435040E944D04AB85D3
:10066000AA233AF4EA85FB850E946C04EA87FB879B
:100670004DE2403011F01F5F01C00B7F04C00E94AB
:1006800035040E944D0400FD11C0151778F407FFD2
:1006900008C002FF04C00B7F242F115001C020E3CB
:1006A00001C020E20E942C045150EFCF312F01FFF6
:1006B00017C03030A1F003FF06C0EE81FF81259105
:1006C000EE83FF8305C0AE81BF812D91AE83BF83D2
:1006D0000E942C04503009F051503150EACF4BC0E9
:1006E00020E3EE81FF810E947904E887F987EE819B
:1006F000FF813296EE83FF83E885F985AA85BB8565
:10070000AE17BF0750F02F5FA885B985EA85FB8536
:10071000EA1BFB0BEA87FB87EFCF2A3328F003FFA6
:1007200002C0295F01C0295D04FD1AC0213320F4F5
:10073000A885B985119709F409C0531710F000FF77
:1007400001C013C020E207FF0BC020E3006102FFDD
:1007500007C00B7F4A930E943B04503009F0515070
:100760000E942C04503009F051503150A885B985B1
:10077000129708F0B5CF00FF08C0503031F051504B
:10078000E0E2EA930E943B04F8CF10E0DDCEAC85B6
:10079000BD850E9475040E94890464960895FF92A5
:1007A000F82E26970E9484040E945504309719F46D
:1007B000EFEFFFEF25C0DE0116960E9468048D0161
:1007C0000E945504EE83FF83E0E0E887E987DE01BD
:1007D0001A960E9468040E947504FA93EA931A9389
:1007E0000A93ECE5F2E0FA93EA93FE013A96FA9363
:1007F000EA93A0DE9F01AE81BF81E0E0EC93F901B6
:100800000E948B042A96FF900895A991B991EE2732
:10081000FF276D91662311F03196FBCF0895AA272B
:10082000BB27E991F9910590002011F01196FBCFBB
:10083000FD0108950E947D0484E00E94CF03289664
:1008400008950E941802E0E3EA930C941D02EA93D3
:100850000E94AA010C9418022A93ED85FE85FA9352
:10086000EA93E989FA8909950895E889F98934971D
:10087000E88BF98B0895ED85FE85FA93EA93E98973
:10088000FA8909950895A889B98914960E94750472
:10089000EE83FF83FA93EA930895A889B9891496A1
:1008A0000E947504EA87FB870895DE011C960E946A
:1008B00068040E9475040895E991F991309639F021
:1008C00080ED97E00197F1F7A8953197C9F7089562
:1008D0000024AF0DB01D0895F195E195F040089505
:1008E0006F2F660F660B762F0895ED91FC9111978F
:1008F00008950590F491E02D08957A936A93FA9300
:10090000EA9308955A934A933A932A931A930A932F
:1009100008955D814C813B812A8119810881089568
:00000001FF
