:0E00000081C0B5C0FDCFFCCFFBCFFACFF9CF4A
:10000E00F8CFF7CFF6CFF5CFF4CFF3CFF2CFF1CFC6
:10001E00F0CFEFCF1027E80364000A0001000010B4
:10002E00000110000100494E543000505225642D3D
:10003E00256425642564256400454543522D2564B9
:10004E003A45454152482D25640050494E412D25D3
:10005E00643A50494E422D25640050494E432D2599
:10006E00643A50494E442D25640055425252482D53
:10007E0025643A55435352432D2564005352454748
:10008E002D25643A5350482D25640043522D256486
:10009E003A4353522D2564005350482D25643A534C
:1000AE00504C2D256400474943522D25643A47494B
:1000BE0046522D2564004143535225643A4F534115
:1000CE004C25640048656C6C6F20416C65786579D1
:1000DE0000436F6D6D202564004C43440000010009
:1000EE002D4E414E000080C00100E000EC000200E9
:1000FE00E400F4000000F894EE27ECBBF1E0FBBF47
:10010E00EBBFE5BFE6BFF8E1F1BDE1BD8DE0A2E0DA
:10011E00BB27ED938A95E9F780E092E0A0E6ED9398
:10012E000197E9F7E6EFF0E085919591009761F080
:10013E00A591B59105901590BF01F00105900D9216
:10014E000197E1F7FB01F0CFEFE5EDBFE2E0EEBF87
:10015E00C0EED0E012C1A898AA9AAE9AAF9A0895AE
:10016E000A921A92FA926A937A938A939A93AA931C
:10017E00BA93EA93FA93EFB7EA936197F8948AD415
:10018E0089D48BD48FD4E4E3F0E095D480E074D39B
:10019E00249694D47FD4E1E0EA937FD483D47AD4A6
:1001AE0081D4E9E3F0E087D48CD4E0E0B199E1E0CA
:1001BE008ED4E0E0B299E1E08AD4E0E0B399E1E0D8
:1001CE0086D4E0E0B499E1E082D484E155D3689618
:1001DE0075D4A89A81D4AA987FD4AE987DD4AF98BE
:1001EE007BD4E4EFF1E07DD46196E991EFBFF99114
:1001FE00E991B991A9919991899179916991F99022
:10020E00199009901895619745D4E1E0EA9345D489
:10021E00E1E1F0E050D499D166D4E130A0E0FA07E4
:10022E0009F006C063D464D4EFB351D466D4A2C02F
:10023E00E230A0E0FA0709F009C058D4E8E5F0E092
:10024E003AD4E9B344D43DD458D494C0E330A0E0BA
:10025E00FA0709F00AC04AD4E8E6F0E02CD4E3B37A
:10026E0036D4E0B334D449D485C0EB30A0E0FA07DD
:10027E0009F00AC03BD4E8E7F0E01DD4E0B527D47E
:10028E00E0B525D43AD476C0EC30A0E0FA0709F0F8
:10029E000AC02CD4EAE8F0E00ED4EFB718D4EEB7CB
:1002AE0016D42BD467C0ED30A0E0FA0709F006C0D3
:1002BE001DD41ED4EFB30BD420D45CC0E531A0E026
:1002CE00FA0709F00AC012D4E9E9F0E0F4D3E5B771
:1002DE00FED3E4B7FCD311D44DC0E631A0E0FA074B
:1002EE0009F00AC003D4E6EAF0E0E5D3EEB7EFD3A7
:1002FE00EDB7EDD302D43EC0E731A0E0FA0709F026
:10030E0006C0F4D3FED3EAB7E2D3F7D333C0EF314E
:10031E00A0E0FA0709F00AC0E9D3E4ECF0E0CBD391
:10032E00E8B1D5D3E4B1D3D3E8D324C0E032A0E012
:10033E00FA0709F008C0DAD3E2EDF0E0BCD380E0B2
:10034E009BD2249617C0E132A0E0FA0709F006C04E
:10035E00CDD3D7D3EAB7BBD3D0D30CC0C7D3EFED31
:10036E00F0E0A9D3ED89FE896627772746D484E08D
:10037E0083D22896A3D3639608952897E1E0E88365
:10038E00E0E0E98300E010E020E030E048E750E0F4
:10039E00EBBBEFEFEABBE1E0E8BBE7BBE5ECE4BBB0
:1003AE00E1E0E5BBE0E0EFBDEEBDEDBDECBDE5BDD2
:1003BE00E4BDEBBDEABDE9BDE8BDEBB7E064EBBF64
:1003CE00E0E0E5BFE6BFE0E4EABFE0E0E9BFE0E879
:1003DE00E8B9E0E0E0BFE0E1EA931CD3C3D2E7E086
:1003EE00EA9358D3B2D2E7EEF0E065D3F1D2B3DEA2
:1003FE00E8E7F0E076D3A881B981A83EE3E0BE0736
:10040E0008F071C0E881F9813196E883F983A881FB
:10041E00B981E4E1F0E0E6D3309709F002C0A89A82
:10042E0001C0A898A881B981A53FE1E0BE0708F4F4
:10043E000BC098D22FD32ED388D2EAE0F0E051D35E
:10044E00E1E0F0E0E883F9835A934A93A4D3253090
:10045E00E0E03E070CF014C0A0E09999A1E0A030B6
:10046E0009F40DC0A0E09B99A1E0A03009F407C0EB
:10047E00A0E09D99A1E0A03009F401C001C001C027
:10048E0012C0999904C042D3E1E3EC9309C09B9941
:10049E0004C03CD3E2E3EC9303C038D3E3E3EC9324
:1004AE002F5F3F4F38D3002E012A09F403C01A9351
:1004BE000A93A9DE9C9910C055D231D317D08F0163
:1004CE001A930A93A0DE2BD3E5D2E6E0F0E0F3D246
:1004DE003CD020E030E01FD3DDD2DCD236D21FD3A9
:1004EE0067D2789488CF28960000FECFB981A88174
:1004FE00EC91EA93C5D2EE2311F01196F9CFE89460
:10050E00EC91ED3211F4689402C0EB3209F41196BD
:10051E0066277727EC91EA93ABD2EE2379F0FB01B5
:10052E00660F771F660F771F6E0F7F1F660F771F81
:10053E00ED91FF27E0536E0F7F1FECCFFB011EF4F2
:10054E00E095F095319622960895B981A88110967E
:10055E0031F0FC81EB816A8161931197E9F7EB81B0
:10056E00FC8125960895A991B991EE27FF276D91EB
:10057E00662311F03196FBCF0895AA27BB27E99188
:10058E00F9910590002011F01196FBCFFD01089511
:10059E003DD3C8D2129629D3309709F422C0C2D2C5
:1005AE00C4D28F01309709F001C00DC00230E0E0D7
:1005BE001E0708F415C0F80131978F01AA81BB817F
:1005CE001496ED93FC93AED21296B2D23197AC81C3
:1005DE00A083A8D20AD3FF230AF402C0A3D2A8D2C2
:1005EE0005C0A0D2EFEFFFEFED93FC9316D3259647
:1005FE000895269707D310E0AC85BD85E0E0F0E0C6
:10060E00ED93FC93EA89FB893196EA8BFB8B31974C
:10061E00E4912E2FE03009F429C1E12FE03009F0EA
:10062E0007C0253209F002C011E001C087D21DC1FA
:10063E00E13009F019C0253209F003C07FD210E075
:10064E0014C112E040E000E02D3209F002C001E0DA
:10065E000CC12B3209F002C04BE207C1203209F067
:10066E0002C040E202C103C0E23009F008C050E00F
:10067E0013E0203309F002C00068F7C003C0E33076
:10068E0009F0F3C0203308F404C02A3308F001C087
:10069E0001C007C0AAE05A9F502DE22FE0535E0F13
:1006AE00E4C0E22FE33609F008C04FD251D24DD24A
:1006BE00A481AA9351D2D8C003C0E33709F007C072
:1006CE0051D252D254D24FDF1E2F0AC003C0E03790
:1006DE0009F00BC047D248D24AD24FDF1E2F086016
:1006EE0002600F7730E037C003C0E43609F001C076
:1006FE0003C0E93609F002C0046003C0E53709F013
:10070E0006C0E2E2F0E036D215E00DC003C0E835D7
:10071E0009F002C0086003C0E83709F0A5C0ECE29A
:10072E00F0E028D214E002FF13C01CD21DD225D255
:10073E00AB85AA230AF005C0EA85FB853CD21DD203
:10074E004DE2403009F402C01F5F01C00B7F03C0B1
:10075E0009D20AD212D200FD11C0151708F00EC030
:10076E0007FF08C002FF04C00B7F242F115001C0E9
:10077E0020E301C020E2E2D15150EFCF312F01FF33
:10078E0017C0303009F413C003FF05C0EE81FF819E
:10079E002591F0D105C0AE81BF812D91AE83BF836F
:1007AE00CDD1503009F401C051503150EACF52C072
:1007BE0020E3EE81FF811DD2E887F987EE81FF816C
:1007CE003296D8D1E885F985AA85BB85AE17BF07C5
:1007DE0008F409C02F5FA885B985EA85FB85EA1B59
:1007EE00FB0BCBD1EFCF2A3308F405C003FF02C0B9
:1007FE00295F01C0295D04FF01C020C0213308F02C
:10080E0006C0A885B985119709F401C002C0006120
:10081E000CC0531708F403C000FD01C001C013C083
:10082E0020E207FF0BC020E3006102FF07C00B7F31
:10083E004A9392D1503009F401C051507FD15030BB
:10084E0009F401C051503150A885B985129708F4AA
:10085E0001C0AECF00FF08C0503009F405C05150A2
:10086E00E0E2EA9379D1F8CF10E0CCCEAC85BD852D
:10087E00BCD1CFD164960895FF92F82E2697C4D19D
:10088E007FD1309709F006C0EFEFFFEFC4D12A9663
:10089E00FF900895DE0116968AD18D0171D16AD12D
:1008AE00E0E0E887E987DE011A9681D19ED103D177
:1008BE001A930A93EFECF2E0FED0FE013A96FBD0CB
:1008CE0098DE9F01AE81BF81E0E0EC93F901A3D1E8
:1008DE002A96FF900895FFE0FA95F1F70895AAB3CE
:1008EE00AF70AABBD99AD898F6DFDA9AF4DFA9B31B
:1008FE00DA98F1DFDA9AEFDFDA98A7FDF5CF0895EF
:10090E00A07FAB2BABBBDA9AE6DFDA98E4DF089573
:10091E00D998AAB3A76FAABBBBB3BF70A881F0DFEB
:10092E00A881A295EDDFD99A21960895DA9AD3DFA0
:10093E00E9B3DA98D0DFE07F0895CDDFF7DFAE2F91
:10094E00F5DFD998E295EA2B0895C9DFE881F0E04A
:10095E00EC51FF4FE081A981EA0F17D159804880F1
:10096E0022960895BCDFE2E010D1B9DFECE00DD1A4
:10097E00B6DFE1E00AD1E0E04E2E5E2E0895EF9351
:10098E00FF93A8816894AA3021F0E894571408F4D4
:10099E0005C043947FD04A92D8DF36F053949FDF40
:1009AE00D89AA881AA93B4DFFF91EF91219608956A
:1009BE001A93A981BA81ED91A983BA831E2FE030D3
:1009CE0009F403C01A93DBDFF4CF18812396089540
:1009DE001A93E981FA813196E983FA833197E4918A
:1009EE001E2FE03009F403C01A93C9DFF2CF18812D
:1009FE0023960895AA27BB271197F1F70895D99842
:100A0E00AAB3A76FAABBBBB3BF70A88179DFD99A6F
:100A1E0021960895DA98D8987880E881E058E09386
:100A2E00E600E881E054E093E700B1D0B0D0AFD05B
:100A3E00E1DFE0E2EA93E3DFDDDFE8E2A6D0DADF32
:100A4E00E4E0A3D0D7DFE5E8A0D0D4DFAAB3AF703F
:100A5E00AABBD99A72DFE53009F403C0E0E0219613
:100A6E0008953DDFE6E091D07DDFE1E02196089527
:100A7E00E1E0F991F03310F0FA3308F0EE27089523
:100A8E00E1E0F991F03229F0F93010F0FE3008F083
:100A9E00EE270895E0E0EA93089557DFFE01FA93FA
:100AAE00EA93F8CFE1E1F0E0FA93EA934EDDFE012E
:100ABE00FA93EA930895FA93EA930895FE01FBDF01
:100ACE0077CFE6B3FF276627772797D00895FF27BE
:100ADE006627772792D00895E8E7F0E0ECDF5BD049
:100AEE003ACBE9DF58C0E989FA890895FE01E3CFD0
:100AFE00E7E4F0E0E0DFECB3EACF88E0BDDE2C9671
:100B0E000895E4EBF0E0D7DFEBB7E1CFDE0112960C
:100B1E00A20FB31F0895FA01EE0FFF1FE2CFFE01E1
:100B2E003296C9CFAA81BB81089514965ED00895DE
:100B3E00ED91FD913196FE93EE9308952A93ED85F6
:100B4E00FE85B9DFD0DF09950895E889F989089502
:100B5E003497E88BF98B0895ED85FE85ACDFC3DF06
:100B6E0009950895F2DFF4CFA889B989DECFEE8317
:100B7E00FF83A1CFEE83FF830895EA87FB87089555
:100B8E00DE011C9614D031D00895EA93C1CE32DF27
:100B9E00E0E3EA9334CFE991F991309639F080EDA4
:100BAE0097E00197F1F7A8953197C9F708950024BA
:100BBE00AF0DB01D0895F195E195F0400895002414
:100BCE00112490E1AA0FBB1F001C111C0E1A1F0A44
:100BDE0018F40E0E1F1E01C0A1609A9599F7FD0123
:100BEE00D0010895ECDFFD010895ED91FC91119770
:100BFE0008950590F491E02D08957A936A93FA93EF
:100C0E00EA9308955A934A933A932A931A930A931E
:100C1E0008955D814C813B812A8119810881089557
:00000001FF
