:0800000068C0FECFFDCFFCCF6C
:10000800FBCFFACFF9CFF8CFF7CFF6CFF5CFF4CFB4
:10001800F3CFF2CFF1CFF0CFEFCF1027E803640092
:100028000A00010000100001100001004C434400C8
:1000380077685F633A256400454543522D25643A45
:1000480045454152482D25640050494E412D2564AF
:100058003A50494E422D25640050494E432D25649F
:100068003A50494E442D25640055425252482D2598
:10007800643A55435352432D256400416E647265BA
:1000880079205368616D697300535245472D256483
:100098003A5350482D256400474943522D25643A68
:1000A800474946522D25640025783A53504C2D2552
:1000B800640043522D25643A4353522D25640000B1
:1000C80080C00200E000C8000000F894EE27ECBBF6
:1000D800F1E0FBBFEBBFE5BFE6BFF8E1F1BDE1BD75
:1000E8008DE0A2E0BB27ED938A95E9F780E092E0E6
:1000F800A0E6ED930197E9F7EAECF0E08591959198
:10010800009761F0A591B59105901590BF01F00198
:1001180005900D920197E1F7FB01F0CFEFE5EDBFF8
:10012800E2E0EEBFC0EED0E005C0A898AA9AAE9A69
:10013800AF9A0895619700E010E029E130E041E0CE
:1001480050E0E0E0EBBBEFEFEABBE5ECE4BBE1E05D
:10015800E5BBE0E0EFBDEEBDEDBDECBDE5BDE4BD4A
:10016800EBBDEABDE9BDE8BDE9BFE0E8E8B9E0E01C
:10017800E0BFE0E1EA93D9D286D2E7E017D3E4E31F
:10018800F0E018D3B2D2D1DF18D3A89A16D3CDDFB6
:10019800AA9813D3CADFAE9810D3C7DFAF980DD390
:1001A800C4DF483EE3E05E0708F0B5C04F5F5F4F2D
:1001B800DA01E4E1F0E086D3309711F4A89A01C09F
:1001C800A898453FE1E05E0738F0FBD2EAE0F0E0AE
:1001D800F1D24CD341E050E03A932A9347D3F4D27A
:1001E80029F4A0E09D99A1E0A03009F018C0E9D257
:1001F800F0D2E8E3F0E0DED2FA01662777276DD384
:1002080084E0D0D12896E5D2E6D2E0E4F0E0D2D27C
:10021800ECB3E8D2EFB3E6D2EAD25AD27BC0D4D25A
:1002280029F4A0E09B99A1E0A03009F015C0C9D23B
:10023800D0D2E1E5F0E0BED2E9B3D4D2E6B3D2D26F
:10024800D6D2C9D2E1E6F0E0B5D2E3B3CBD2E0B37F
:10025800C9D2CDD23DD25EC0999919C014D265DFFA
:10026800A89AE0E0A3D2B5D2E1E7F0E0A3D2E0B5E6
:10027800B9D2E0B5B7D2BBD22BD2E0E0EA93E1E045
:10028800EA93F4D1E3E8F0E095D22FD243C09B99EA
:1002980017C04BDFAA9895D29CD2E1E9F0E08AD248
:1002A800EFB7A0D2EEB79ED2A2D295D2E0EAF0E0A4
:1002B80081D2EBB797D2EAB795D299D209D22AC0A0
:1002C8009C9903C032DFAF9825C09D9920C02DDFCF
:1002D800AE9877D27ED2E0EBF0E06CD2F801DAD2B9
:1002E800FCD2EDB77FD283D276D2EAEBF0E062D2CD
:1002F800E5B778D2E4B776D27AD2EAD10F5F1F4F4A
:100308002430E0E03E0714F02150304003C00DDFF8
:1003180029E130E046CF61960000FECFE7D26BD2EC
:100328001296D3D23097F1F066D268D28F01309707
:1003380061F00230E0E01E07A0F0F80131978F016C
:10034800AA81BB811496ED93FC9355D2129659D28B
:100358003197AC81A0834FD2B8D2FF2312F04BD291
:1003680050D205C048D2EFEFFFEFED93FC93C5D212
:10037800259608952697B6D210E0AC85BD85E0E0B5
:10038800F0E0ED93FC93EA89FB893196EA8BFB8BCD
:100398003197E4912E2FE03009F4FEC0E12FE030D0
:1003A80031F4253211F411E001C031D2F4C0E1304A
:1003B800A1F4253211F42BD2EDC012E040E000E0A8
:1003C8002D3211F401E0E7C02B3211F44BE2E3C007
:1003D800203211F440E2DFC002C0E23039F450E0CC
:1003E80013E0203311F40068D6C003C0E33009F0ED
:1003F800D2C0203310F02A3308F007C0AAE05A9F71
:10040800502DE22FE0535E0FC6C0E22FE33639F4D9
:1004180006D208D204D2A481AA9308D2BBC0E3377B
:1004280031F40BD20CD20ED2ACD11E2F08C0E0375B
:1004380051F403D204D206D2AED11E2F0860026056
:100448000F7730E02EC0E43611F0E93611F404607D
:1004580002C0E53729F4E2E2F0E0F7D115E00BC07D
:10046800E83511F4086003C0E83709F093C0ECE2FE
:10047800F0E0EBD114E002FF11C0DFD1E0D1E8D108
:10048800AB85AA232AF4EA85FB8500D2E1D14DE2A7
:10049800403011F01F5F01C00B7F03C0CED1CFD118
:1004A800D7D100FD10C0151770F407FF08C002FF70
:1004B80004C00B7F242F115001C020E301C020E2AB
:1004C800A6D15150F0CF312F01FF15C0303091F037
:1004D80003FF05C0EE81FF812591B7D105C0AE812C
:1004E800BF812D91AE83BF8392D1503009F0515016
:1004F8003150ECCF46C020E3EE81FF81EAD1E88796
:10050800F987EE81FF813296A0D1E885F985AA8521
:10051800BB85AE17BF0748F02F5FA885B985EA8568
:10052800FB85EA1BFB0B94D1F0CF2A3328F003FF9D
:1005380002C0295F01C0295D04FD19C0213320F4E0
:10054800A885B985119709F409C0531710F000FF61
:1005580001C011C020E207FF0AC020E3006102FFCA
:1005680006C00B7F4A9362D1503009F051504FD1E9
:10057800503009F051503150A885B985129708F0CC
:10058800BACF00FF07C0503029F05150E0E2EA939B
:100598004DD1F9CF10E0F7CEAC85BD8596D1A9D164
:1005A80064960895FF92F82E26979ED154D13097DD
:1005B80019F4EFEFFFEF1DC0DE01169663D18D0130
:1005C8004AD143D1E0E0E887E987DE011A965AD19B
:1005D8007CD1F0D01A930A93E2E9F1E0EBD0FE0166
:1005E8003A96E8D0C7DE9F01AE81BF81E0E0EC9388
:1005F800F90181D12A96FF900895FFE0FA95F1F765
:100608000895AAB3AF70AABBD99AD898F6DFDA9A38
:10061800F4DFA9B3DA98F1DFDA9AEFDFDA98A7FD09
:10062800F5CF0895A07FAB2BABBBDA9AE6DFDA985B
:10063800E4DF0895D998AAB3A76FAABBBBB3BF706C
:10064800A881F0DFA881A295EDDFD99A98C0DA9A3F
:10065800D4DFE9B3DA98D1DFE07F0895CEDFF7DFA2
:10066800AE2FF5DFD998E295EA2B0895CADFE88125
:10067800F0E0E052FF4FE081A981EA0FF1D0598004
:10068800488022960895BDDFE2E0EAD0BADFECE0C8
:10069800E7D0B7DFE1E0E4D0E0E04E2E5E2E08952B
:1006A800EF93FF93A8816894AA3019F0E89457143F
:1006B80030F04394E0E0EA934A92D8DF36F053945E
:1006C800A0DFD89AA881AA93B5DFFF91EF9157C010
:1006D8001A93A981BA81ED91A983BA831E2FE030BC
:1006E80019F01A93DDDFF5CF0EC01A93E981FA816C
:1006F8003196E983FA833197E4911E2FE03019F09F
:100708001A93CEDFF3CF188123960895AA27BB2723
:100718001197F1F70895D998AAB3A76FAABBBBB3ED
:10072800BF70A8817FDFD99A2AC0DA98D8987880D4
:10073800E881E058E093E200E881E054E093E300C8
:1007480091D090D08FD0E2DFE0E2EA93E4DFDEDF01
:10075800E8E286D0DBDFE4E083D0D8DFE5E880D0CC
:10076800D5DFAAB3AF70AABBD99A78DFE53011F00C
:10077800E0E005C046DFE6E073D085DFE1E02196E2
:100788000895A991B991EE27FF276D91662311F07D
:100798003196FBCF0895AA27BB27E991F9910590D7
:1007A800002011F01196FBCFFD010895EA93E0E0D7
:1007B800EA935CCFFA93EA930895EDE2F0E0FADF6A
:1007C80055C061DFE0E0F2CFA0E09999A1E0A03048
:1007D8000895FE01EFCF7CDFE0E0EA93E1E0EA93E1
:1007E80045DFF7CFFF276627772777D0089588E07A
:1007F800D9DE2C96EECFAA81BB810895149665D0D8
:100808000895ED91FD913196FE93EE9308952A9304
:10081800ED85FE85CFDFE989FA8909950895E8898C
:10082800F98908953497E88BF98B0895ED85FE854D
:10083800C1DFE989FA8909950895F1DFF3CFA8891D
:10084800B989DCCFEE83FF83B5CFEE83FF830895AC
:10085800EA87FB870895DE011C9614D036D00895E8
:10086800EA93E8CE53DFE0E3EA9355CFE991F991B3
:10087800309639F080ED97E00197F1F7A895319718
:10088800C9F708950024AF0DB01D0895F195E195BD
:10089800F04008956F2F660F660B762F0895002499
:1008A800112490E1AA0FBB1F001C111C0E1A1F0A6D
:1008B80018F40E0E1F1E01C0A1609A9599F7FD014C
:1008C800D0010895ECDFFD010895ED91FC91119799
:1008D80008950590F491E02D08957A936A93FA9318
:1008E800EA9308955A934A933A932A931A930A9348
:1008F80008955D814C813B812A8119810881089581
:00000001FF
