:1000000031C0B7C142C041C040C03FC03EC03DC08A
:100010003CC03BC03AC039C038C037C036C035C01C
:1000200034C0FBC09AC0B1C07EC17DC17CC17BC160
:100030007AC179C178C1C1C0D8C0EFC074C173C1E1
:1000400072C171C170C16FC16EC1FFC016C149C11B
:100050006AC169C168C167C166C165C164C125C1A2
:100060003CC13FC111241FBECFE5D2E0DEBFCDBFF2
:1000700011E0A0E6B0E0E6EAF9E002C005900D92DA
:10008000A630B107D9F705D08CC4BACF8CE185BBB7
:1000900008951BBA8FEF8ABB91E098BB97BB85ECA4
:1000A00084BB95BB1FBC1EBC1DBC1CBC15BC14BCBA
:1000B0001BBC1ABC19BC18BC8BB780648BBF15BEA7
:1000C00016BE80E48ABF19BE80E888B910BE8CE1F4
:1000D00085BB80EB94E020E931E0F9013197F1F73D
:1000E0000197D9F721E030E060E47CE940E951E094
:1000F0002F5F3F4F81E0253F380728F0CB01019764
:10010000F1F721E030E080EB94E0FA013197F1F76C
:100110000197D9F783E0283E380750F380E090E05C
:100120000895DF93CF93CDB7DEB761970FB6F894FC
:10013000DEBF0FBECDBF9C01DE01119681E1FD0146
:1001400011928A95E9F7F9013197E132F10508F04A
:10015000EAC0EF5EFF4FCD01099429B336B34DB726
:100160005EB7485050400FB6F8945EBF0FBE4DBF0B
:10017000EDB7FEB73196ADB7BEB711968C93119718
:1001800012969C9381E790E0C3C023B330B34DB780
:100190005EB7485050400FB6F8945EBF0FBE4DBFDB
:1001A000EDB7FEB73196ADB7BEB711968C931197E8
:1001B00012969C9381E890E0ABC020B530B54DB766
:1001C0005EB7485050400FB6F8945EBF0FBE4DBFAB
:1001D000EDB7FEB73196ADB7BEB711968C931197B8
:1001E00012969C9381E990E093C02FB73EB74DB72C
:1001F0005EB7485050400FB6F8945EBF0FBE4DBF7B
:10020000EDB7FEB73196ADB7BEB711968C93119787
:1002100012969C9383EA90E07BC02CB33FB34DB71A
:100220005EB7485050400FB6F8945EBF0FBE4DBF4A
:10023000EDB7FEB73196ADB7BEB711968C93119757
:1002400012969C9380E690E063C025B734B74DB713
:100250005EB7485050400FB6F8945EBF0FBE4DBF1A
:10026000EDB7FEB73196ADB7BEB711968C93119727
:1002700012969C9382EB90E04BC02EB73DB74DB7E2
:100280005EB7485050400FB6F8945EBF0FBE4DBFEA
:10029000EDB7FEB73196ADB7BEB711968C931197F7
:1002A00012969C938FEB90E033C028B134B14DB7D8
:1002B0005EB7485050400FB6F8945EBF0FBE4DBFBA
:1002C000EDB7FEB73196ADB7BEB711968C931197C7
:1002D00012969C938DED90E01BC06BEE70E094D075
:1002E0003FC02BB73AB74DB75EB7485050400FB636
:1002F000F8945EBF0FBE4DBFEDB7FEB73196ADB7F8
:10030000BEB711968C93119712969C938DEC90E04A
:100310009383828324831582368317827CD0EDB742
:10032000FEB7389618C000D000D000D0EDB7FEB7A9
:100330003196CE010196ADB7BEB712969C938E93BF
:10034000119788EF90E0938382833583248363D071
:10035000EDB7FEB736960FB6F894FEBF0FBEEDBFF1
:1003600061960FB6F894DEBF0FBECDBFCF91DF917F
:1003700008951F920F920FB60F921124FF920F93C0
:100380001F932F933F934F935F936F937F938F931D
:100390009F93AF93BF93EF93FF93DF93CF93CDB72B
:1003A000DEB76197DEBFCDBF81E1F82E8E010F5F12
:1003B0001F4FF8018F2D11928A95E9F7C80160E06F
:1003C00071E022D0F8018F2D11928A95E9F7F8019A
:1003D0001192FA94E9F76196DEBFCDBFCF91DF911C
:1003E000FF91EF91BF91AF919F918F917F916F910D
:1003F0005F914F913F912F911F910F91FF900F901F
:100400000FBE0F901F901895FB01DC0101900D921B
:100410000020E1F70895AEE0B0E0E0E1F2E098C23C
:100420000D891E8986E08C831A8309838FEF9FE7ED
:100430009E838D839E01275E3F4FCE0101966F897B
:10044000788DA90109D02F813885020F131FF8017B
:1004500010822E96E4E098C2ABE0B0E0E1E3F2E077
:1004600069C23C012B015A01FC011782168283816B
:1004700081FD03C06FEF7FEFB9C19AE0892E1E01A5
:100480000894211C311CF3012381F20123FD859185
:1004900023FF81912F01882309F4A5C1853239F406
:1004A00023FD859123FF81912F01853221F490E076
:1004B000B301B6D1E8CF982FFF24EE249924FFE1B1
:1004C000FF15D0F09B3269F09C3228F4903259F03D
:1004D000933291F40EC09D3249F0903369F441E0BB
:1004E00024C052E0F52A84E0F82A28C098E0F92ACE
:1004F00025C0E0E1FE2A22C0F7FC29C0892F8053E5
:100500008A3070F4F6FE05C0989C902C1124980E49
:1005100015C0E89CE02C1124E80EF0E2FF2A0EC082
:100520009E3229F4F6FC5FC140E4F42A07C09C36F1
:1005300019F450E8F52A02C0983649F4F20123FD77
:10054000959123FF91912F01992309F0B8CF892F1D
:100550008554833018F08052833038F444E050E002
:10056000A40EB51E5FE359830FC0933631F0933765
:1005700079F0933509F052C01FC0F501808189835D
:1005800042E050E0A40EB51E610101E010E011C090
:10059000F501C080D180F6FC03C06FEF7FEF02C091
:1005A000692D70E042E050E0A40EB51EC6012DD1C9
:1005B0008C015FE7F52213C0F501C080D180F6FC05
:1005C00003C06FEF7FEF02C0692D70E042E050E0A2
:1005D000A40EB51EC6010ED18C0150E8F52AF3FE1B
:1005E00006C018C080E290E0B3011AD1EA948E2DC3
:1005F00090E008171907B0F30DC0F601F7FC8591DC
:10060000F7FE81916F0190E0B3010AD1E110EA9405
:10061000015010400115110581F7E2C0943611F028
:10062000993661F5F7FE08C0F501208131814281DC
:10063000538184E090E00AC0F501808191819C01A2
:10064000442737FD4095542F82E090E0A80EB91E54
:100650009FE6F92257FF09C05095409530952195A6
:100660003F4F4F4F5F4FE0E8FE2ACA01B901A10199
:100670002AE030E001D1D82ED2183FC0953729F4B6
:100680001F2D1F7E2AE030E01DC01F2D197F9F36D1
:1006900061F0903720F4983509F0A5C00FC090376D
:1006A00039F0983709F09FC004C028E030E00AC054
:1006B000106114FD146020E130E004C014FD1660E8
:1006C00020E132E017FF08C0F5016081718182816D
:1006D000938144E050E008C0F50180819181BC0124
:1006E00080E090E042E050E0A40EB51EA101C4D02D
:1006F000D82ED2188FE7F82EF122F6FE0BC05EEF4F
:10070000F522D91438F4F4FE07C0F2FC05C08FEED0
:10071000F82202C01D2D01C0192DF4FE0DC0FE01EE
:10072000ED0DF11D8081803319F499EEF92208C096
:100730001F5FF2FE05C003C08F2D867809F01F5F92
:100740000F2DF3FC13C0F0FE0EC01E1510F09D2CF3
:100750000AC09D2C9E0C911A1E2D05C080E290E0CF
:10076000B3015ED01F5F1E15C8F304C01E1510F440
:10077000E11A01C0EE2404FF0EC080E390E0B30153
:100780004FD002FF1BC001FD03C088E790E00EC000
:1007900088E590E00BC0802F867881F001FF02C0D1
:1007A0008BE201C080E2F7FC8DE290E0B30138D02B
:1007B00005C080E390E0B30133D09A94D914C8F314
:1007C000DA94F101ED0DF11D808190E0B30128D0A4
:1007D000DD20B1F705C080E290E0B30121D0EA94BA
:1007E000EE20C9F750CEF30166817781CB012B96BD
:1007F000E2E1BCC0FC010590615070400110D8F7E7
:10080000809590958E0F9F1F0895FC016150704058
:1008100001900110D8F7809590958E0F9F1F089535
:100820000F931F93CF93DF938C01EB018B8181FF9B
:100830001BC082FF0DC02E813F818C819D812817B6
:10084000390764F4E881F9810193F983E88306C0EC
:10085000E885F985802F0995892B31F48E819F8158
:1008600001969F838E8302C00FEF1FEFC801DF91B7
:10087000CF911F910F910895FA01AA27283051F1C5
:10088000203181F1E8946F936E7F6E5F7F4F8F4FC1
:100890009F4FAF4FB1E03ED0B4E03CD0670F781F20
:1008A000891F9A1FA11D680F791F8A1F911DA11D05
:1008B0006A0F711D811D911DA11D20D009F468943E
:1008C0003F912AE0269F11243019305D3193DEF6E6
:1008D000CF010895462F4770405D4193B3E00FD09C
:1008E000C9F7F6CF462F4F70405D4A3318F0495D87
:1008F00031FD4052419302D0A9F7EACFB4E0A6956A
:100900009795879577956795BA95C9F7009761058B
:10091000710508959B01AC010A2E069457954795E1
:1009200037952795BA95C9F7620F731F841F951FD6
:10093000A01D08952F923F924F925F926F927F92E7
:100940008F929F92AF92BF92CF92DF92EF92FF92DF
:100950000F931F93CF93DF93CDB7DEB7CA1BDB0B8B
:100960000FB6F894DEBF0FBECDBF09942A88398830
:1009700048885F846E847D848C849B84AA84B98437
:10098000C884DF80EE80FD800C811B81AA81B98143
:10099000CE0FD11D0FB6F894DEBF0FBECDBFED0157
:0609A0000895F894FFCF5A
:1009A600454543522D25643A45454152482D256417
:1009B6000050494E412D25643A50494E422D25643A
:1009C6000050494E432D25643A50494E442D256426
:1009D6000055425252482D25643A55435352432DF1
:1009E600256400535245472D25643A5350482D251A
:1009F600640043522D25643A4353522D2564005317
:100A060050482D25643A53504C2D256400474943E0
:100A1600522D25643A474946522D256400414353D9
:100A26005225643A4F53414C25640048656C6C6FFF
:100A360020416C6578657900436F6D6D20256400F3
:060A4600494E543000008F
:00000001FF
