:080000000C9446000C94000072
:100008000C9400000C9400000C9400000C94000068
:100018000C9400000C9400000C9400000C94000058
:100028000C9400000C9400000C9400000C94000048
:100038000C9400000C9400000C9400000C94000038
:100048000C9400000C9400000C9400000C94000028
:100058000C9400000C9400000C9400000C94000018
:100068000C9400000C9400000C9400000C94000008
:100078000C9400000C9400000C9400000C940000F8
:100088000C940000F894EE27EFBBF1E0F5BFE5BF54
:10009800F8E1A895A4B7A77FA4BFF0936000E09308
:1000A80060008DE0A2E0BB27ED938A95E9F780E038
:1000B80090E4A0E0B1E0ED930197E9F78BBFE0E0B1
:1000C800EEBBEFEFEDBFE0E4EEBFC0E0D1E10C9492
:1000D8006D00E0E0E2B9E1B9E5B9E4B9E8B9E7B93A
:1000E800EBB9E0E4EAB9E0E0E4BDE5BDE6BDE7BDB3
:1000F800E8BDE0938000E0938100E0938500E09301
:100108008400E0938700E0938600E0938900E09301
:100118008800E0938B00E0938A00E093B600E093B8
:10012800B000E093B100E093B200E093B300E09335
:10013800B400E0939000E0939100E0939500E09381
:100148009400E0939700E0939600E0939900E09381
:100158009800E0939B00E0939A00E0936900EDBB60
:10016800E0936800E0936E00E0936F00E093700006
:10017800E0937100E093C100E093C900E0E8E0BFBC
:10018800E0E0E0937B00E0937F00E0937A00ECBD31
:10019800E093BC005E9AA0E9B1E00E94DA005E98A4
:1001A800A0E9B1E00E94DA00F5CFFFCF109639F050
:1001B8008AEF90E00197F1F7A8951197C9F708958C
:00000001FF
