:0A00000012C0FECFFDCFFCCFFBCFF6
:10000A00FACF91C027C0F7CF41C0F5CFF4CFF3CFD5
:10001A00F2CFF1CFF0CFEFCFEECFEDCFF894EE27BE
:10002A00ECBBE5BFF8E1A4B7A77FA4BFF1BDE1BD72
:10003A008DE0A2E0ED938A95E9F780E8A0E6ED93DA
:10004A008A95E9F7E0E0E3BBE4BBE5BBEFEDEDBF82
:10005A00C0E88EC0EA93EFB7EA93ECD01BB10CB1BB
:10006A00E12FEC7171F4E32DE05800833394E8E05A
:10007A00E31509F433245394E8E0E51511F4552403
:10008A00989ADBD0E991EFBFE9911895AA93EA9380
:10009A00EFB7EA93662051F06A94A8E8A70DEC91AD
:1000AA00ECB97394E8E0E71509F47724E991EFBF16
:1000BA00E991A9911895E8E0E615E9F3F894662024
:1000CA0011F45D990BC0E42DE857A881A0834394ED
:1000DA00E8E0E41509F44424639402C0E881ECB929
:1000EA0078941FC0B09904C0E881EF5F9E2E19C0B2
:1000FA00B19904C0E881EE5F9E2E13C0B29904C084
:10010A00E881ED5F9E2E0DC0B39904C0E881EC5FD3
:10011A009E2E07C0B49904C0E881EB5F9E2E01C0F1
:10012A009924219608950A921A92FA926A937A93D6
:10013A008A939A93AA93BA93EA93FA93EFB7EA93B4
:10014A00992009F453D0992009F456D0992009F43A
:10015A0059D07894E991EFBFF991E991B991A991B0
:10016A009991899179916991F990199009901895C5
:10017A00E0E0EBBBEABBEFEFE2BBE2E0E1BB48D079
:10018A00E0E0EBB9E8EDEAB9E6E0E3B9E0E0E2B9CC
:10019A00E3E3E9B920D010D01E2F1A938CDF0CD0DC
:1001AA001E2FE03011F01A9386DFE0E9F1E0FA93AE
:1001BA00EA9334D0F4CFFFCF1A93992009F416D0DA
:1001CA00992009F419D0992009F41CD0192D9924E1
:1001DA00E12F199108951CD0E3E0E3BFE3E8E2BF01
:1001EA00E0E0E5BFE2E0E9BF78940895C598E0E071
:1001FA00EA9378DFC59A0895C698E5E0EA9372DF34
:10020A00C69A0895C798EAE0EA936CDFC79A0895F8
:10021A00E0EEE7BBEFEFE8BB99240895E991F99185
:10022A00309639F088EE93E00197F1F7A895319767
:10023A00C9F708951A930A9308950991199108958F
:00000001FF
