:0E0000000C944B000C9400000C9400000C9427
:10000E0000000C9400000C9400000C9400000C9462
:10001E0000000C9400000C9400000C9400000C9452
:10002E0000000C9400000C9400000C9400000C9442
:10003E0000000C9400000C9400000C9400000C9432
:10004E0000000C940000EE31ED32EB33E741DE346C
:10005E00DD35DB36D742BE37BD38BB39B7437E2AD6
:10006E007D307B237744000000004356204B65799A
:10007E003A200000010005007400090060017800BC
:10008E000100060076000000F894EE27ECBBF1E0CC
:10009E00FBBFEBBFE5BFF8E1F1BDE1BD8DE0A2E036
:1000AE00BB27ED938A95E9F780E094E0A0E6ED9307
:1000BE000197E9F7E2E8F0E085919591009761F0FC
:1000CE00A591B59105901590BF01F00105900D9287
:1000DE000197E1F7FB01F0CFEFE5EDBFE4E0EEBFF6
:1000EE00C0E6D1E00C94890155244424E0E0E0936D
:1000FE0069017724E0936A0108952497E7B3E883B2
:10010E00E8B3E983EAB3EA83EBB3EB83EAB3EF70C8
:10011E00EABBEBB3E06FEBBBE7B3EF60E7BBE8B373
:10012E00E07FE8BBE52DE03039F42DD0E03019F05A
:10013E0041D0E1E05E2E1DC0E13049F42AD0E0301E
:10014E0021F058D0E2E05E2E01C0552412C0E230FC
:10015E0031F41FD0E03011F4E3E05E2E0AC0E3303C
:10016E0041F417D0E03019F0E2E05E2E02C05AD012
:10017E005524E881E7BBE981E8BBEA81EABBEB8164
:10018E00EBBB24960895E8B3E07FE8BB0E94A8017C
:10019E000895E8B3E07FE8BBE8B3AE2FE42DEF702F
:1001AE00EA2BE8BBE42DE095E07FAE2FE9B3E095B6
:1001BE00EA2308951A9310E01430D8F4E8B3EF60F0
:1001CE00E8BB103009F4C098113009F4C198123010
:1001DE0009F4C298133009F4C3980E94A80139F0AB
:1001EE00E9B3E07F4E2EE8B3EF704E2A19C01F5FC1
:1001FE00E3CF16C01A9310E0103190F40E94AF01B5
:10020E00A4914A1659F40E94AF01319604900092BF
:10021E006901E1E07E2EE0936A0102C01F5FECCF20
:10022E001991089577240895E0916A01E03031F034
:10023E00E0E0E0936A01E09169010895E0E008953D
:10024E000895E881E2951EC01A9385ED8A95F1F71F
:10025E00AE9807C01A93EBB384D0E981EA93F1DF2D
:10026E00E983EBB37ED018812296089585ED8A95A9
:10027E00F1F70895FBDFAE9802C0F8DFAE9AE88181
:10028E00EA93E8DF21960895EAB3E06FEABBEBB399
:10029E00E06FEBBBE4B3E06DE4BBE5B3E06DE5BB53
:1002AE00AC98E8E2F0E069D0EAE0F0E066D0E1E098
:1002BE00F0E063D0E0E2EA93C7DFE8E2EA93DADF48
:1002CE00E8E0EA93D7DFECE0EA93D4DFE1E0EA93EB
:1002DE00D1DFE2E0F0E0FA93EA930E94CB01E6E090
:1002EE00EA93C8DF08951A93A981BA81EC91E030A0
:1002FE0031F01D91A983BA831A93BFDFF5CF188110
:10030E0023960895C1DFE0E8EA93B4DFE0E6F1E07A
:10031E00FA93EA93E8DF0E947B00EAE0F0E0FA93BA
:10032E00EA930E94CB010E9484000E941B016E2E54
:10033E00662029F0E9E8EA939DDF6A929EDFEDCF11
:10034E00FFCF8BE18A95F1F7E9B3E095E07F089551
:10035E00E12FA4E5B0E0F0E0EE0FFF1FEA0FFB1F68
:10036E000895EF701E2FE981E07F1E2B1BBBAF9A05
:10037E008BE08A95F1F7AF980895FA93EA930E946D
:10038E00CB01E0E3EA9360CFE991F991309639F031
:10039E0080EA9FE00197F1F7A8953197C9F7089584
:00000001FF
