:0C0000000C9466000C9400000C940000AE
:10000C000C9400000C9400000C9400000C94000064
:10001C000C9400000C9400000C9400000C94000054
:10002C000C9400000C9400000C9400000C94000044
:10003C000C9400000C9400000C9400000C94000034
:10004C000C9400000C949F000C9400000C94BF00C6
:10005C000C9400000C9400000C9400000C94000014
:10006C000C9400000C9400000C9400000C94000004
:10007C000C9400000C9400000C9400000C940000F4
:10008C001027E80364000A000100001000011000B2
:10009C00010048656C6C6F20776F726C640048656A
:1000AC006C6C6F2057455244000080C00C0000114E
:1000BC009E000B000C11AA0002002711B6000000D4
:1000CC00F894EE27EFBBF1E0F5BFE5BFF8E1A8959A
:1000DC00A4B7A77FA4BFF0936000E09360008DE00D
:1000EC00A2E0BB27ED938A95E9F780E090E4A0E0CD
:1000FC00B1E0ED930197E9F7E8EBF0E0859195918C
:10010C00009761F0A591B59105901590BF01F00194
:10011C0005900D920197E1F7FB01F0CF8BBFE0E06A
:10012C00EEBBEFEFEDBFE0E4EEBFC0E0D1E10C942D
:10013C00D700EA93FA93EFB7EA931A930A931091C4
:10014C00C0000091C600E12FEC7181F4E42DF0E0C9
:10015C00E95EFE4E00834394E8E0E41509F4442480
:10016C006394E8E0E61511F46624F09A099119916C
:10017C0013C0EA93FA93EFB7EA93772069F07A9475
:10018C00E82DF0E0E15EFE4EE081E093C600839442
:10019C00E8E0E81509F48824E991EFBFF991E991B9
:1001AC00189500E010E0E0E0E2B9E1B9E1E0E5B972
:1001BC00E4B9EFEFE8B9E0E0E7B9EBB9EAB9E4BDCF
:1001CC00E5BDE6BDE7BDE8BDE0938000E0938100AE
:1001DC00E0938500E0938400E0938700E093860031
:1001EC00E0938900E0938800E0938B00E0938A0011
:1001FC00E093B600E093B000E093B100E093B2005E
:10020C00E093B300E093B400E0939000E09391008E
:10021C00E0939500E0939400E0939700E0939600B0
:10022C00E0939900E0939800E0939B00E0939A0090
:10023C00E0936900EDBBE0936800E0936E00E093FF
:10024C006F00E0937000E0937100E093C000E8ED64
:10025C00E093C100E6E0E093C200E0E0E093C5006B
:10026C00E7E6E093C400E0E8E0BFE0E0E0937B0069
:10027C00E0E1EA930E94FE017894002E012A41F4F9
:10028C00289A01E010E00E943202E0E0F1E107C0A0
:10029C00289800E010E00E943202ECE0F1E1FA93C1
:1002AC00EA930E94DF01E4E1F0E0FA93EA930E9402
:1002BC004202E3CFFFCFFFE0FA95F1F70895A7B123
:1002CC00AF70A7B9419A4098F6DF429AF4DFA6B115
:1002DC004298F1DF429AEFDF4298A7FDF5CF0895DF
:1002EC00A07FAB2BA8B9429A0E94610142980E9450
:1002FC00610108954198A7B1A76FA7B9B8B1BF70B4
:10030C00A881EEDFA881A295EBDF419A0C94300214
:10031C00429A0E946101E6B142980E946101E07F1D
:10032C0008950E946101F4DFAE2FF2DF4198E2954F
:10033C00EA2B08950E946501E881F0E0E95DFE4E2C
:10034C00E081A981EA0FEA930E948001A98098803C
:10035C00229608950E946501E2E0EA930E948001D2
:10036C000E946501ECE0EA930E9480010E94650105
:10037C00E1E0EA930E948001E0E09E2EAE2E08950B
:10038C00EF93FF93A8816894AA3019F0E894AC1409
:10039C0030F09394E0E0EA939A92CCDF36F0A39499
:1003AC008EDF409AA881AA93A5DFFF91EF910C9460
:1003BC0030021A93A981BA81ED91A983BA831E2FB9
:1003CC00E03019F01A93DCDFF5CF188123960895ED
:1003DC00AA27BB271197F1F708954198A7B1A76FEA
:1003EC00A7B9B8B1BF70A8810E947601419A32C0FA
:1003FC0042984098C880E881E058E0932911E88140
:10040C00E054E0932A110E9437020E9437020E94A6
:10041C003702DEDFE0E2EA93E0DFDADFE8E20E94B7
:10042C003D02E4E00E943D02E5E80E943D02A7B1D6
:10043C00AF70A7B9419A0E949701E53011F0E0E046
:10044C0009C00E946501E6E0EA930E9480010E94C7
:10045C00B001E1E021960895E0E0EA93EA930C9470
:10046C00A0010E94EE01E0E3EA930C94F301EA93FD
:10047C000E9480010C94EE01E991F991309639F0CB
:10048C008AEF90E00197F1F7A8953197C9F7089595
:00000001FF
