:100000000C9474000C9400000C9400000C940000FC
:100010000C9400000C9400000C9400000C94000060
:100020000C9400000C9400000C9400000C94000050
:100030000C9400000C9400000C9400000C94000040
:100040000C9400000C9400000C9400000C94000030
:100050000C949A000C9400000C94BA000C940000CC
:100060000C9400000C9400000C9400000C94000010
:100070001027E80364000A000100001000011000CE
:1000800001006400C80090012003F8FFFCFFFEFFA0
:10009000FFFF466F756E6420257520646576696381
:1000A00065730A2E004465762025752E20002530C4
:1000B000325820004E6F7420466F756E6465640080
:1000C00020496E697420657272202575202E0054B7
:1000D00025643A252E326620EF432E2000507265AB
:1000E0007373656420204500F894EE27EFBBF1E0C0
:1000F000F5BFE5BFF8E1A895A4B7A77FA4BFF0932B
:100100006000E09360008DE0A2E0BB27ED938A954C
:10011000E9F780E090E1A0E0B1E0ED930197E9F725
:10012000E0E0EEBBEFEFEDBFE0E1EEBFC0E0D5E019
:100130000C94F000EA93FA93EFB7EA931A930A93B8
:100140001091C0000091C600E12FEC7181F4E52D03
:100150005394F0E0EC5DFA4F0083E4E1E51509F417
:1001600055247394E4E1E71511F47724F09A09918A
:10017000199113C0EA93FA93EFB7EA93CC2069F090
:10018000CA94E92D9394F0E0E85CFA4FE081E093A3
:10019000C600E4E1E91509F49924E991EFBFF9916A
:1001A000E9911895AA93E4E1EC15E9F3F894CC20D1
:1001B00021F4E091C000E07269F4EA2DA394F0E02C
:1001C000E85CFA4FA881A083E4E1EA1509F4AA24C7
:1001D000C39403C0E881E093C60078942196089503
:1001E000CCD0A8E8B3E10E9426050E943005E0EFDC
:1001F000EA93A9E0B5E00E9480054E2E789410980D
:1002000011981298442099F10E94B604E2E9F0E0B6
:10021000FA93EA93E42D0E94BB043324341430F59E
:100220000E94B604E5EAF0E00E94C80484E078D2B7
:1002300028960E94D2040E94D6046624E8E06E1636
:1002400088F40E94B604EEEAF0E0FA93EA930E9482
:10025000DA04DF01EE27A60DBE1FEC910E94BB045D
:100260006394ECCF0E94D6043394D8CF06C00E948A
:10027000B604E4EBF0E00E94E10433243414C8F443
:100280000E94DA04FA93EA93ECE0EA93E7E2EA9355
:10029000A3E010D3E03049F40E94B604E0ECF0E0B3
:1002A000FA93EA93E32D0E94BB040E94E80433947E
:1002B000E5CFE1E06E2E33243414A8F40E94B60496
:1002C000EFECF0E00E94C8040E94DA04DF01A8D23B
:1002D0000E94D50688E024D22C960E94D2040E9467
:1002E000D6043394E9CF2898A0912405A53461F46D
:1002F0000E94B604EDEDF0E00E94E104E3E4E09337
:100300002405A8EC0E94EC04109A119812980E94FF
:10031000E8041098119A12980E94E8041098119815
:10032000129A0E94E8041098119812980E94E8040A
:10033000109A119A12980E94E804109A1198129A31
:100340000E94E804109A119A129A0E94E8040E94EE
:10035000E804AFCFFFCFBA93AA93A881B981EC91FB
:10036000E03049F0ED91A883B983AE2F1BDFA1E007
:100370000E94EC04F2CF22960895E0E8E093610039
:10038000E0E0E0936100E2B9E7E0E1B9E0E0E5B97F
:10039000E4B9E8B9E7B9EBB9E2E0EAB9E0E0E4BD15
:1003A000E5BDE6BDE7BDE8BDE0938000E0938100D8
:1003B000E0938500E0938400E0938700E09386005B
:1003C000E0938900E0938800E0938B00E0938A003B
:1003D000E093B600E093B000E093B100E093B20088
:1003E000E093B300E093B400E0936900EDBBE093C9
:1003F0006800E0936E00E0936F00E0937000E0937C
:10040000C000E8EDE093C100E6E0E093C200E0E068
:10041000E093C500E3E3E093C400E0E8E0BFE0E080
:10042000E0937B00E0937F00E0937A00ECBDE093E3
:10043000BC000895BA93AA931A930A93AA81BB8128
:1004400012960E94CA06309759F1AA81BB81149670
:100450000E94CA068F01309761F00230E0E01E076B
:10046000F0F0F80131978F01AA81BB811496ED93CA
:10047000FC93AA81BB811296ED91FD913196FE937A
:10048000EE933197AC81A083AA81BB810E94CA06FA
:10049000FF232AF0ED91FD913196FE93EE9306C075
:1004A000AA81BB81EFEFFFEFED93FC9319810881E7
:1004B00042C2BA93AA9326970E94DA0610E0AC854E
:1004C000BD85E0E0F0E0ED93FC93EA89FB8931968D
:1004D000EA8BFB8B3197E4912E2FE03011F40C94D2
:1004E0008803E12FE03039F4253211F411E002C025
:1004F0000E94EF040CC1E130A9F4253219F40E94E6
:10050000EF0404C112E040E000E02D3211F401E0FC
:10051000FEC02B3211F44BE2FAC0203211F440E25B
:10052000F6C002C0E23039F450E013E0203311F499
:100530000068EDC004C0E33011F00C948703203351
:1005400010F02A3308F007C0AAE05A9F502DE22F7E
:10055000E0535E0FDCC0E22FE33649F40E94F6045C
:10056000E889F989A481AA930E94FC04CFC0E337EB
:1005700041F40E94F6040E9402050E949D041E2F71
:100580000AC0E03761F40E94F6040E9402050E944E
:10059000A9041E2F086002600F7730E035C0E436F2
:1005A00011F0E93611F4046002C0E53731F4E0E7F8
:1005B000F0E0EE83FF8315E00DC0E83511F408602C
:1005C00004C0E83711F00C948603EAE7F0E0EE830C
:1005D000FF8314E002FF14C00E94F6040E940C0581
:1005E000AB85AA233AF4EA85FB850E94B406EA8724
:1005F000FB874DE2403011F01F5F01C00B7F04C04C
:100600000E94F6040E940C0500FD11C0151778F435
:1006100007FF08C002FF04C00B7F242F115001C048
:1006200020E301C020E20E94EF045150EFCF312FB0
:1006300001FF17C03030A1F003FF06C0EE81FF813B
:100640002591EE83FF8305C0AE81BF812D91AE83DE
:10065000BF830E94EF04503009F051503150EACF6F
:100660004BC020E3EE81FF810E94CE06E887F98728
:10067000EE81FF813296EE83FF83E885F985AA85B6
:10068000BB85AE17BF0750F02F5FA885B985EA85F7
:10069000FB85EA1BFB0BEA87FB87EFCF2A3328F0A9
:1006A00003FF02C0295F01C0295D04FD1AC0213388
:1006B00020F4A885B985119709F409C0531710F0E3
:1006C00000FF01C013C020E207FF0BC020E3006160
:1006D00002FF07C00B7F4A930E94FC04503009F0D0
:1006E00051500E94EF04503009F051503150A8850C
:1006F000B985129708F0B5CF00FF08C0503031F02F
:100700005150E0E2EA930E94FC04F8CF10E0DDCE05
:10071000AC85BD850E94CA060E94E10664960895D4
:10072000FF92F82E26970E94DC060E94140530974F
:1007300019F4EFEFFFEF23C0DE0116960E94B0061A
:100740008D010E941405EE83FF83E0E0E887E987CE
:10075000DE011A960E94B0060E94CA06FA93EA9336
:100760001A930A93EAE1F2E0FA93EA93DE011A9609
:10077000A0DE9F01AE81BF81E0E0EC93F9010E9411
:10078000E3062A96FF900895BA93AA931A930E94BB
:100790003005E03011F4E0E08AC0E981FA81309759
:1007A00081F0A5E50E94760510E0A981BA81ED915E
:1007B000A983BA83AE2F0E9476051F5F1830A8F375
:1007C00003C0ACEC0E947605E1E071C0BA93AA9335
:1007D0000E94DC06AC81BD81D7DFE03011F4E0E09F
:1007E0001BC0AEEB0E94760510E020E035E03F93A1
:1007F0002F932F5F3F4F0E947105AF91BF91EC93F4
:100800001F5F1930A0F3E0E0F5E0FA93EA93A9E066
:100810000E94EF050E94C5060E94E30626960895F1
:10082000BA93AA931A93A981BA81D0DFE03019F460
:100830000E941B053CC0E0910405E295EF70E6952F
:10084000E3701E2FA981BA819FDFE03019F40E9466
:100850001B052DC0A4E40E947605E12FA2E8B0E0BC
:100860000E9420050E94D2060E942605A981BA8115
:10087000ADDFE03019F40E941B0519C00E9430055D
:10088000E12FAAE8B0E00E9420050E94CE06A091C8
:100890000005B0910105EA23FB230E94C0060E94D7
:1008A0003406A0E0B0E080E89DE30E946206188173
:1008B00023960895AA93AB81BC8166DFE03011F4E2
:1008C000E0E039C0E881E295E07FEE0FEF61E88378
:1008D000AEE40E947605A9810E947605AA810E9455
:1008E0007605A8810E947605AB81BC816FDFE03080
:1008F00011F4E0E020C0A0910305EA81EA1751F469
:10090000A0910205E981EA1729F4A0910405E88184
:10091000EA1711F0E0E00FC0AB81BC8135DFE030B9
:1009200011F4E0E008C0A8E40E947605AFE00E9460
:10093000EC040E94300525960895BA93AA93A991D4
:10094000B991EE27FF276D91662311F03196FBCF09
:100950000895BA93AA93AA27BB27E991F991059024
:10096000002011F01196FBCFFD010895ECE4F5E0B5
:10097000FA93EA930895FF27662777270E94D50602
:1009800084E00E9490032896ACE4B5E00C94AB019F
:10099000FA93EA93E32DF0E031960E94C0060E949C
:1009A000D5060895ACE4B5E00C94AB01AAE0B0E044
:1009B0000C942605E32DA9E0EA9FF001E75FFA4FCA
:1009C0000895FA93EA9380E00E9490032496EACF78
:1009D000A4E6B0E00C942605B0E00C9426052A931A
:1009E000AD85BE85EF85F88909950895E889F9896F
:1009F0003497E88BF98B0895AD85BE85EF85F8892E
:100A000009950895A889B98914960E94CA06EE83AB
:100A1000FF83AE81BF810895A889B98914960E9489
:100A2000CA06EA87FB870895DE011C960E94B0067D
:100A30000E94CA060895E0E0FCE36CE176EC0895BC
:100A4000F0E0EE0FFF1FEA0FFB1F0895109639F03C
:100A500080ED97E00197F1F7A8951197C9F70895F0
:100A6000EE272898209A80EC93E00197F1F72098E0
:100A700085E28A95F1F7189B08958BEC8A95F1F73A
:100A8000189BE1E08CE093E00197F1F70895209A3C
:100A900085E08A95F1F720988DE18A95F1F78894A1
:100AA00018990894E79585ED8A95F1F70895E894EB
:100AB000209A85E08A95F1F770FD209883E28A9567
:100AC000F1F7189903C070FF03C0089570FF0895EF
:100AD00088EC8A95F1F720988DE08A95F1F7689473
:100AE000089568E0D4DF6A95E9F708957A2F68E001
:100AF000EE27DDDF26F477956A95D9F7E39508951B
:100B00004F935F9311244427012C1124A9DFEE2376
:100B100001F1AF93A881EADFAF9151E0501598F44D
:100B2000B6DFE7FD08C0B3DFE7FD06C03FD089238D
:100B300019F4152E01C0ABDF39D0892370E009F01C
:100B400071E0B5DF1EC0A3DFE7FF0BC0A0DFE7FF4A
:100B500005C0E42F5F914F9121960895689437D096
:100B6000EFCF95DFE7FF01C003C0501531F0152E20
:100B7000E8942DD077279BDF04C0689428D071E0DB
:100B800096DF5395513454F282DFEE1FEE1FE17071
:100B90001896EC93189743951120D9F259E0EC91EF
:100BA0001996EC9318975A95D1F7AECFE52FEA95A1
:100BB0006E2FE695E695E695FF27EA0FFB1F8081ED
:100BC00091E0677019F0990F6A95FCCF0895EEDFF8
:100BD0001EF09095892301C0892B80830895EE270C
:100BE000AA2389F08A2F68E1A881B98198E0FD9154
:100BF0007F2F7E27779508F4E627E795F6959A9557
:100C0000B9F78A9599F722960895552342F45038FA
:100C100011F4E0FF04C03196691F791F6BF050E8B2
:100C2000572711F45F933CC05F3F31F0660F000C13
:100C300057956795752F08955F9300200AF03CC083
:100C400035C050E8192E1522880F991F9527550F8A
:100C5000879550E8072E0522660F771F7527550FD9
:100C600067950895689401C0E8943097604070409B
:100C7000B1F0002426F0772312F4009479D0172ED7
:100C80007EE1112032F07A95EE0FFF1F661F111CD6
:100C9000F9CFEF2FF62F612D5F93C1DF5F9108959C
:100CA000EE27FF27662777275F910895EFEFFFEF85
:100CB0006FE77FEF5F910895EFEFFFEF6FE77FE75B
:100CC0005F9108955F93BDDF703851F3903841F321
:100CD00001240894791F23F41CF300203AF3ECCF8D
:100CE0000F921F932F933F934F93112722279927FA
:100CF000689FA0018F9F302D410D591F6B9F300DB4
:100D0000411D591F8E9F27D0BF9F25D06A9F23D09A
:100D1000BE9F1DD0AF9F1BD0AE9F110D291F391F45
:100D2000491F591FE32FF42F652F522F4F913F91E9
:100D30002F911F910F9066232AF0550FEE1FFF1F72
:100D4000661F02C073954BF260DF5F910895100D2E
:100D5000211D391F02C0200D311D491F591F089543
:100D60000024AF0DB01D0895F195E195F040089570
:100D7000F09560957095E195FF4F6F4F7F4F089507
:100D80006F2F660F660B762F0895EE23E1E009F0D2
:100D9000EE270895ED91FC91119708950590F49137
:100DA000E02D0895A591B49108957A936A93FA93EA
:100DB000EA9308955A934A933A932A931A930A937B
:100DC00008955D814C813B812A81198108810895B4
:00000001FF
