:100000006DC0FECFFDCFFCCFFBCFFACFF9CFF8CF3D
:10001000F7CFF6CFF5CFF4CFF3CFF2CFF1CFF0CFCC
:10002000EFCF1027E80364000A0001000010000170
:1000300010000100454543522D25643A4545415283
:10004000482D25640050494E412D25643A50494EB3
:10005000422D25640050494E432D25643A50494EA7
:10006000442D25640055425252482D25643A55438B
:100070005352432D256400535245472D25643A536E
:1000800050482D25640043522D25643A4353522D88
:100090002564005350482D25643A53504C2D256457
:1000A00000474943522D25643A474946522D25645D
:1000B000004143535225643A4F53414C2564004C50
:1000C0004344000001002D4E414E000080C001005D
:1000D000E000C4000200E400CC000000F894EE2729
:1000E000ECBBF1E0FBBFEBBFE5BFE6BFF8E1F1BD64
:1000F000E1BD8DE0A2E0BB27ED938A95E9F780E0B2
:1001000092E0A0E6ED930197E9F7EEECF0E085913F
:100110009591009761F0A591B59105901590BF015B
:10012000F00105900D920197E1F7FB01F0CFEFE5AB
:10013000EDBFE2E0EEBFC0EED0E089C06197BED374
:10014000E1E0EA931FD3BDD3B9D3E1E1F0E0BDD341
:100150004FD1BED3E130A0E0FA0719F4B2D3BBD33C
:1001600066C0E230A0E0FA0741F4ABD3E5E4F0E08A
:10017000ACD3E9B3BAD3E6B35AC0E330A0E0FA0790
:1001800041F49FD3E5E5F0E0A0D3E3B3AED3E0B311
:100190004EC0EB30A0E0FA0741F493D3E5E6F0E07F
:1001A00094D3E0B5A2D3E0B542C0EC30A0E0FA07AA
:1001B00041F487D3E7E7F0E088D3EFB796D3EEB703
:1001C00036C0ED30A0E0FA0719F47BD384D32FC0FA
:1001D000E531A0E0FA0741F474D3E6E8F0E075D326
:1001E000E5B783D3E4B723C0E631A0E0FA0741F4D2
:1001F00068D3E3E9F0E069D3EEB777D3EDB717C082
:10020000E731A0E0FA0741F45CD3E1EAF0E05DD326
:10021000EBB76BD3EAB70BC0EF31A0E0FA0771F48C
:1002200050D3E1EBF0E051D3E8B15FD3E4B1FF2765
:1002300066277727D2D388E041D22C9642D3D3D2F7
:1002400063960895A898AA9AAE9AAF9A08952797A8
:10025000E1E0E883E0E0E98300E010E020E030E066
:1002600049E150E0EBBBEFEFEABBE5ECE4BBE1E0DA
:10027000E5BBE0E0EFBDEEBDEDBDECBDE5BDE4BD31
:10028000EBBDEABDE9BDE8BDE9BFE0E8E8B9E0E003
:10029000E0BFE0E1EA93D4D282D2E7E0EA930ED362
:1002A00071D2EFEBF0E011D3ABD2CCDFEDE2F0E0B6
:1002B0000CD361D3A881B981A83EE3E0BE0708F062
:1002C00065C0E881F9813196E883F983A881B98115
:1002D000E4E1F0E077D3309711F4A89A01C0A89830
:1002E000A881B981A53FE1E0BE0760F058D2E6D20F
:1002F000E5D248D2EAE0F0E0E8D23DD3E1E0F0E038
:10030000E883F9835A934A9336D32430E0E03E07DA
:1003100084F4A0E09999A1E0A03051F0A0E09B996D
:10032000A1E0A03029F0A0E09D99A1E0A03009F45F
:1003300001C00FC0999903C0DDD2E1E307C09B99CA
:1003400003C0D8D2E2E302C0D5D2E3E3EC932F5F3F
:100350003F4F002E012A19F01A930A93EFDE9C9961
:100360000FC01DD2CCD215D08F011A930A93E6DEAE
:10037000C6D2A4D2E5E0F0E0A8D23AD020E030E046
:100380009DD29CD2FFD1BBD22ED294CF2796000013
:10039000FECFB981A881EC91EA9386D2EE2311F0C9
:1003A0001196F9CFE894EC91ED3211F4689402C003
:1003B000EB3209F4119666277727EC91EA936CD219
:1003C000EE2379F0FB01660F771F660F771F6E0F24
:1003D0007F1F660F771FED91FF27E0536E0F7F1F82
:1003E000ECCFFB011EF4E095F0953196229608952E
:1003F000B981A881109631F0FC81EB816A8161930B
:100400001197E9F7EB81FC813FC0A991B991EE27E3
:10041000FF276D91662311F03196FBCF0895AA272F
:10042000BB27E991F9910590002011F01196FBCFBF
:10043000FD010895DBD266D21296C7D23097F1F053
:1004400061D263D28F01309761F00230E0E01E0785
:10045000A0F0F80131978F01AA81BB811496ED932A
:10046000FC9350D2129654D23197AC81A0834AD2D9
:10047000ACD2FF2312F046D24BD205C043D2EFEFED
:10048000FFEFED93FC93B9D2259608952697AAD253
:1004900010E0AC85BD85E0E0F0E0ED93FC93EA89E7
:1004A000FB893196EA8BFB8B3197E4912E2FE0305C
:1004B00009F4FEC0E12FE03031F4253211F411E0EF
:1004C00001C02CD2F4C0E130A1F4253211F426D2BF
:1004D000EDC012E040E000E02D3211F401E0E7C091
:1004E0002B3211F44BE2E3C0203211F440E2DFC0C2
:1004F00002C0E23039F450E013E0203311F4006818
:10050000D6C003C0E33009F0D2C0203310F02A3344
:1005100008F007C0AAE05A9F502DE22FE0535E0F6B
:10052000C6C0E22FE33639F400D202D2FED1A48154
:10053000AA9302D2BBC0E33731F404D205D207D26A
:1005400064DF1E2F08C0E03751F4FCD1FDD1FFD18C
:1005500066DF1E2F086002600F7730E02EC0E436A1
:1005600011F0E93611F4046002C0E53729F4E2E243
:10057000F0E0F0D115E00BC0E83511F4086003C0DD
:10058000E83709F093C0ECE2F0E0E4D114E002FFB8
:1005900011C0D8D1D9D1E1D1AB85AA232AF4EA85FB
:1005A000FB85F9D1DAD14DE2403011F01F5F01C077
:1005B0000B7F03C0C7D1C8D1D0D100FD10C0151723
:1005C00070F407FF08C002FF04C00B7F242F1150F6
:1005D00001C020E301C020E2A1D15150F0CF312F62
:1005E00001FF15C0303091F003FF05C0EE81FF819F
:1005F0002591B0D105C0AE81BF812D91AE83BF835F
:100600008DD1503009F051503150ECCF46C020E32D
:10061000EE81FF81DED1E887F987EE81FF81329696
:1006200099D1E885F985AA85BB85AE17BF0748F043
:100630002F5FA885B985EA85FB85EA1BFB0B8DD169
:10064000F0CF2A3328F003FF02C0295F01C0295DE3
:1006500004FD19C0213320F4A885B985119709F448
:1006600009C0531710F000FF01C011C020E207FFBE
:100670000AC020E3006102FF06C00B7F4A935CD1F1
:10068000503009F051504AD1503009F0515031509A
:10069000A885B985129708F0BACF00FF07C050307F
:1006A00029F05150E0E2EA9347D1F9CF10E0F7CEBC
:1006B000AC85BD858AD19DD164960895FF92F82EB0
:1006C000269792D14DD1309719F4EFEFFFEF1DC06F
:1006D000DE0116965CD18D0143D13CD1E0E0E88784
:1006E000E987DE011A9653D170D1EFD01A930A939D
:1006F000EAE1F2E0EAD0FE013A96E7D0C7DE9F01D8
:10070000AE81BF81E0E0EC93F90175D12A96FF90AC
:100710000895FFE0FA95F1F70895AAB3AF70AABB68
:10072000D99AD898F6DFDA9AF4DFA9B3DA98F1DF2C
:10073000DA9AEFDFDA98A7FDF5CF0895A07FAB2B0B
:10074000ABBBDA9AE6DFDA98E4DF0895D998AAB36A
:10075000A76FAABBBBB3BF70A881F0DFA881A29529
:10076000EDDFD99A97C0DA9AD4DFE9B3DA98D1DF0E
:10077000E07F0895CEDFF7DFAE2FF5DFD998E29561
:10078000EA2B0895CADFE881F0E0EC51FF4FE081E9
:10079000A981EA0FEAD05980488022960895BDDFEA
:1007A000E2E0E3D0BADFECE0E0D0B7DFE1E0DDD0BB
:1007B000E0E04E2E5E2E0895EF93FF93A88168949B
:1007C000AA3019F0E894571428F0439477D04A924D
:1007D000D9DF36F05394A1DFD89AA881AA93B6DF67
:1007E000FF91EF9157C01A93A981BA81ED91A98326
:1007F000BA831E2FE03019F01A93DEDFF5CF0EC05A
:100800001A93E981FA813196E983FA833197E49169
:100810001E2FE03019F01A93CFDFF3CF1881239603
:100820000895AA27BB271197F1F70895D998AAB37D
:10083000A76FAABBBBB3BF70A88180DFD99A2AC0BB
:10084000DA98D8987880E881E058E093E600E8816B
:10085000E054E093E7008BD08AD089D0E2DFE0E279
:10086000EA93E4DFDEDFE8E280D0DBDFE4E07DD0A6
:10087000D8DFE5E87AD0D5DFAAB3AF70AABBD99AA2
:1008800079DFE53011F0E0E005C047DFE6E06DD04C
:1008900086DFE1E021960895E1E0F991F03310F070
:1008A000FA3308F0EE270895E1E0F991F03229F0EB
:1008B000F93010F0FE3008F0EE270895E0E0EA93FA
:1008C0000895FE01FA93EA930895FA93EA9308953E
:1008D000E989FA890895E4E3F0E0F7DFECB3FF2754
:1008E000662777277AD0EFB30895FF276627772703
:1008F00074D00895DE011296A20FB31F0895FE0171
:100900003296E3CFAA81BB81089514965ED00895F4
:10091000ED91FD913196FE93EE9308952A93ED8526
:10092000FE85D3DFD5DF09950895E889F989089513
:100930003497E88BF98B0895ED85FE85C6DFC8DF17
:1009400009950895F2DFF4CFA889B989DECFEE8347
:10095000FF83BBCFEE83FF830895EA87FB8708956B
:10096000DE011C9614D031D00895EA93EFCE59DF02
:10097000E0E3EA935BCFE991F991309639F080EDAD
:1009800097E00197F1F7A8953197C9F708950024EA
:10099000AF0DB01D0895F195E195F0400895002444
:1009A000112490E1AA0FBB1F001C111C0E1A1F0A74
:1009B00018F40E0E1F1E01C0A1609A9599F7FD0153
:1009C000D0010895ECDFFD010895ED91FC911197A0
:1009D00008950590F491E02D08957A936A93FA931F
:1009E000EA9308955A934A933A932A931A930A934F
:1009F00008955D814C813B812A8119810881089588
:00000001FF
